:020000040000FA
:020000000000FE
:020001000000FD
:020002000000FC
:020003000000FB
:020004000000FA
:020005000000F9
:020006000000F8
:020007000000F7
:020008000000F6
:020009000000F5
:02000A000000F4
:02000B003FFFB5
:02000C000001F1
:02000D003FFEB4
:02000E000003ED
:02000F003FFBB5
:020010000007E7
:020011003FF6B8
:02001200000EDE
:020013003FEDBF
:02001400001BCF
:020015003FDBCF
:020016000033B5
:020017003FBAEE
:02001800006185
:020019003F7630
:02001A0000C61E
:02001B003ED9CC
:02001C0001CB16
:02001D003D03A1
:02001E00058457
:02001F0034119A
:020020001FFFC0
:02002100341198
:02002200058453
:020023003D039B
:0200240001CB0E
:020025003ED9C2
:0200260000C612
:020027003F7622
:02002800006175
:020029003FBADC
:02002A000033A1
:02002B003FDBB9
:02002C00001BB7
:02002D003FEDA5
:02002E00000EC2
:02002F003FF69A
:020030000007C7
:020031003FFB93
:020032000003C9
:020033003FFE8E
:020034000001C9
:020035003FFF8B
:020036000000C8
:020037000000C7
:020038000000C6
:020039000000C5
:02003A000000C4
:02003B000000C3
:02003C000000C2
:02003D000000C1
:02003E000000C0
:02003F000000BF
:020040000000BE
:00000001ff
