:020000040800F2
:10000000000B00209D010008F5010108C9750008DA
:10001000F1010108590D000821E601080000000067
:10002000000000000000000000000000891C010822
:10003000311F0008000000006D0E01081D2B010893
:10004000B7010008B7010008B7010008B7010008B0
:10005000B7010008B7010008B7010008B7010008A0
:1000600019360008B7010008C9360008D11E00087B
:10007000B7010008B7010008B7010008B701000880
:10008000DD1E0008B7010008B7010008B70100082D
:10009000B7010008B7010008B7010008AD37000834
:1000A000B7010008B7010008B7010008B701000850
:1000B000B7010008B7010008852B0108B701000847
:1000C000B7010008B7010008B7010008B701000830
:1000D000B7010008B7010008B7010008B701000820
:1000E00089250008B7010008B7010008B70100081A
:1000F000B7010008B7010008B7010008B701000800
:10010000B7010008B7010008E1400108B701000885
:10011000B7010008B701000841740108259C0108D7
:10012000E91E0008F51E0008011F00080D1F000849
:10013000B7010008B7010008B7010008B7010008BF
:10014000B7010008B7010008B7010008F90101086C
:10015000B7010008191F0008B7010008E9C001082D
:10016000B7010008B7010008B7010008B70100088F
:10017000B7010008B7010008B7010008000000003F
:10018000B7010008B7010008DFF80CD000F0D2FA80
:10019000004800470D2F0208000B0020064880474A
:1001A00006480047FEE7FEE7FEE7FEE7FEE7FEE75C
:1001B000FEE7FEE7FEE7FEE72D2B010889010008B8
:1001C000D2B201E000F8012B491EFBD27047002299
:1001D000F6E710B513460A4604461946FFF7F0FF46
:1001E000204610BD421E12F8013F002BFBD111F832
:1001F000013B02F8013B002BF9D1704730B50546B1
:100200002A460B4612F8010B13F8014B08B1A04225
:10021000F8D01CB1002802D06D1CF1E7284630BD93
:1002200010B5044604E00B7800F8013B03B1491C0B
:10023000521EF8D2204610BDCAB2401E10F8011F4F
:100240008A4202D00029F9D100207047421C10F8E0
:10025000011B0029FBD1801A704730B504460020ED
:10026000034600E05B1C934203D2E05CCD5C401B84
:10027000F8D030BD034611F8012B00F8012B002AFD
:10028000F9D11846704770B5064625F01FFA046884
:1002900005460A220021304600F05BF82C6070BD54
:1002A00030B50B46014600202022012409E021FA46
:1002B00002F59D4205D303FA02F5491B04FA02F543
:1002C0002844151EA2F10102F1DC30BD2DE9F05FDA
:1002D0000546002092469B468846064681464024B5
:1002E0001BE0284641464746224600F044FA534662
:1002F0005A46C01A914110D311461846224600F0C2
:100300002BFA2D1A67EB01084F46224601200021E7
:1003100000F022FA17EB00094E41201EA4F101045F
:10032000DFDC484631462A464346BDE8F09F40EAB6
:1003300001039B0703D009E008C9121F08C0042A63
:10034000FAD203E011F8013B00F8013B521EF9D24A
:1003500070472DE9F04791460F4680460446002637
:1003600014F8015B2DB100F029FA0068405DC00768
:10037000F6D12B2D02D02D2D18D0641E4A463946B9
:10038000204600F01FFA27B13968A14201D1C7F811
:10039000008071054FF002040BD54042002803DDB8
:1003A00025F094F90460A007BDE8F08746F4806664
:1003B000E4E70028F8DA25F089F904606FF00040DE
:1003C000F2E72DE9FE4F804681EA0300C00F0C469C
:1003D000009021F0004123F00045B8EB0200A94154
:1003E00005D24046214690461C460B46024623F065
:1003F0000040104347D0270DC7F30A00C3F30A514A
:100400000290401A019040286BDAC3F3130040F4C5
:10041000801B0098924620B10023D2EB030A63EBC5
:100420000B0B01985946C0F14002504600F094F978
:1004300006460D4650465946019A00F0ACF910EBBD
:1004400008006141002487EA115284EAE7731A43E5
:1004500040D0009A62B3019A012A4FEA075215DC94
:10046000001B61EB02014FF0004202EA0752CDE9A6
:100470000042001C41F5801132462B4600F000FA84
:1004800003B0BDE8F08F40462146F9E7001B61EB61
:100490000201001C41F5801300185B412018A2F5F1
:1004A000001747EB030140EAD570B6196D4111E022
:1004B0006D084FEA360645EAC0754FEA0752001B41
:1004C00061EB0201001C41F5801149084FEA300040
:1004D0000019514132462B4603B0BDE8F04F00F001
:1004E000C0B90098012240000023D0EB020263EB68
:1004F000E073009821464FEAE074B8EB000061EB2E
:100500000401E9E783F000435BE781F0004158E72D
:100510002DE9FE4F81EA030404F0004421F000417C
:1005200000944FF0000B23F0004350EA01045ED02A
:1005300052EA03045BD0C3F30A54C1F30A552C44B6
:10054000A4F2F3340194A0FB0254C1F3130141F46B
:100550008011C3F3130343F4801301FB024400FB37
:10056000034E840A970A44EA815447EA8357A4FB5E
:10057000076802958D0A05FB07854FEA932C04FB5B
:100580000C542705029D4FEA065847EA1637B5EB8B
:1005900008056EEB070C870E920E47EA811742EAB8
:1005A0008312A7FB0201B6EB0B0164EB00042B0DD9
:1005B00043EA0C335E1844EB1C50DA465146E7FB25
:1005C0000201C5F313044FEA0B3343EA14534FEA15
:1005D0000432019C43EA0603A4F10C040294009C3B
:1005E000CDE900B400F04CF903B0BDE8F08F002075
:1005F0000146F9E72DE9F04D81EA030404F0004BD0
:1006000021F0004514464FF0000A23F0004150EA63
:10061000050220D054EA01021DD0C5F30A57024654
:10062000C5F31303C1F31300C1F30A5640F4801558
:1006300043F48013A7EB0608101BD64608F2FD38DA
:1006400073EB050002D308F1010801E092185B4149
:10065000B8F1000F03DA00200146BDE8F08D00205C
:100660004FF48011064684460EE0171B73EB050716
:1006700005D3121B63EB050306434CEA010C490842
:100680004FEA300092185B4150EA0107EDD152EA7F
:10069000030012D082EA040083EA0501084305D072
:1006A000101BAB4106D20122002306E000224FF0CE
:1006B000004302E06FF0010253101AEB06004CEB0E
:1006C000085110EB0A0041EB0B01BDE8F04D00F0C2
:1006D000C8B8C1F30A52C1F3130140F2FF3341F429
:1006E00080119A4202DA00200146704740F23343FB
:1006F0009A42A2F2334202DC524200F03CB800F0CF
:100700002BB8000030B5041E71F1000404DB4FF07B
:100710000044404264EB0101141E73F1000405DB48
:100720001C464FF00043524263EB0403994208BF5A
:10073000904230BD064C074D06E0E06840F00103F2
:1007400094E8070098471034AC42F6D3FFF720FD39
:10075000ECD902082CDA0208202A04DB203A00FA3D
:1007600002F1002070479140C2F1200320FA03F308
:10077000194390407047202A04DB203A21FA02F006
:100780000021704721FA02F3D040C2F120029140CB
:10079000084319467047202A06DBCB17203A41FA56
:1007A00002F043EAE07306E041FA02F3D040C2F1FE
:1007B00020029140084319467047000000487047E6
:1007C000AC6F02082DE9F05F8246007800271546DD
:1007D0008B460AF10104B946302801D09DB113E0DF
:1007E00014F8010B0127782803D0582801D045B10F
:1007F0000AE00DB1102D07D10027102514F8010BC8
:1008000002E0082500E00A250026B0460EE005FBC0
:10081000080005FB06F1012701EB10461FFA80F8DE
:10082000B6F5803F00D3B94614F8010B294600F015
:10083000B2F80028EBDABBF1000F05D00FB1641E4F
:1008400000E05446CBF80040B9F1000F06D024F088
:100850003DFF02210160C81EBDE8F09F48EA064046
:10086000FAE710B5141E73F1000408DA401C41F1D8
:10087000000192185B411A4301D120F0010010BD24
:100880002DE9F04D92469B4611B1B1FA81F202E09A
:10089000B0FA80F220329046FFF75EFF04460F4622
:1008A00040EA0A0041EA0B0153465A46084313D076
:1008B000114653EA010019D0C8F140025046FFF733
:1008C0005AFF05460E46504659464246FFF744FF3A
:1008D000084305D0012004E020463946BDE8F08DEC
:1008E0000020054346EAE0762C4337430A98630527
:1008F000E40AA0EB08000022FD0A44EA47540A304B
:1009000002D500200146E9E7010510196941DDE93A
:10091000084500196941BDE8F04DA2E70EB5C10FC9
:1009200080EAE0700844CA07002140F233438DE8B2
:100930000E000A460B46FFF7A3FF03B000BD0EB53D
:1009400040F2334102910021CDE900110A460B46E5
:10095000FFF796FF03B000BD70B5C1F30A5201F076
:1009600000450024C1F3130140F2FF3341F480112C
:100970009A4201DA002070BD40F233439A42A2F25B
:10098000334203DC5242FFF7F6FE00E090402C4376
:10099000F1D0404270BD3A2800D2303820F0200219
:1009A000412A01D3A2F13700884201D34FF0FF3032
:1009B000704730B5041E71F1000404DB4FF00044B1
:1009C000404264EB0101141E73F1000405DB1C4678
:1009D0004FF00043524263EB0403801A994101D364
:1009E000012030BD002030BD30B5041E71F100047F
:1009F00004DB4FF00044404264EB0101141E73F12C
:100A0000000405DB1C464FF00043524263EB040335
:100A1000101A8B4101D3012030BD002030BDC1F33D
:100A20000A5210B5C1F3130140F2FF3341F48011B3
:100A30009A4201DA002010BD40F233439A42A2F2FA
:100A4000334203DC5242FFF796FE10BD904010BDCA
:100A500000F0004230F000400AD0C10D01F5607195
:100A6000C0F3160042EA0151C20840071143704723
:100A700000200146704701F0004330B421F00041EE
:100A800050EA010206D00A0DA2F56072C1F313010B
:100A9000002A02DC30BC00207047440F44EAC10445
:100AA000C100E01830BC00EBC250AFF30080002959
:100AB000A8BF7047401C490008BF20F001007047E4
:100AC00010B4B0FA80FC00FA0CF050EA010404BF44
:100AD00010BC704749B1CCF1200421FA04F411FA9A
:100AE0000CF118BF012121430843A3EB0C01CB1DDE
:100AF0004FEA00614FEA102042BF002010BC70474F
:100B000000EBC35010440029A4BF10BC7047401C28
:100B1000490008BF20F0010010BC70472DE9F041EA
:100B2000054621F000400C46284309D0C4F30A5082
:100B300040F23341884205DD28462146BDE8F08178
:100B40002846FBE740F2FE31884210DC0CDB4FEA1E
:100B5000043040EA155050EA053105D0104804F041
:100B6000004101430020E9E700200146E6E7A0F24A
:100B700033404642C6F1400228462146FFF7ECFDCD
:100B800007468846284621463246FFF7F4FD43468D
:100B90003A46FFF766FE3246BDE8F041FFF7DCBD9E
:100BA0000000F03F30B5041E71F1000404DB4FF08B
:100BB0000044404264EB0101141E73F1000405DBA4
:100BC0001C464FF00043524263EB04038B4208BFC4
:100BD000824230BD70B58C1810F8015B15F0070328
:100BE00001D110F8013B2A1106D110F8012B03E0C6
:100BF00010F8016B01F8016B5B1EF9D12B0705D4CE
:100C00000023521E0DD401F8013BFAE710F8013B16
:100C1000CB1A921C03E013F8015B01F8015B521E32
:100C2000F9D5A142D8D3002070BD00000020704744
:100C30002DE9F04381B04FF240584DF29E4100261D
:100C4000C2F20008C2F20001D8F898020684C1611D
:100C500040461BF04FFAD8F89892B9F1000F77D0C0
:100C60004EF2105C4EF212504CF2256E4EF21033E2
:100C7000C2F2000CC2F20000C0F6020EC2F2000383
:100C80000488BCF8001000201EF800708DB25F557B
:100C90004F1CB9B2A14236D0B6EB512F0EEB00017A
:100CA00018BF0027BDB24A7801375A55BDB2A542D8
:100CB00029D0B6EB552F18BF00278D78BAB201376F
:100CC0009D54BDB2A5421ED0B6EB552F18BF0027CC
:100CD000CD78BAB201379D54BDB2A54213D009797F
:100CE000B6EB552F18BF0027BAB29954791C8FB2B2
:100CF000A74208D0B6EB572F00F1050018BF00211E
:100D00001928C1D300E021464CF22560ACF8001050
:100D10001921C0F6020006F09BFBB9F82010D9F8A3
:100D20001C20D8F8A8020023C027C0E99973032328
:100D30000A4400F51471A0F85032C0F85C2203692F
:100D4000012B08BFC0F86022DAB200681DF066FB14
:100D5000002001B0BDE8F083FEE7000000207047EE
:100D6000002070474FF24050002141F6A742C2F2E6
:100D70000000C2F20002D0F89402016241F6C741BD
:100D8000C2F20001C0E90521002070472DE9F04FB3
:100D900091B00DF1040A0C46064640215046FFF77B
:100DA00016FA226850463146FFF73AFA20680138B1
:100DB0003F2838D84EF23C2B4EF2FC164EF29828C3
:100DC0004FF0000900200025C2F2000BC2F200061D
:100DD000C2F200081AF8000000B39BF800703B282C
:100DE000F0550FD108EB0700C7F140013F2F88BF36
:100DF0000021FFF7ECF9404631463A46FFF797FAF3
:100E000006E000BF781C8BF80000C0B2402805D374
:100E1000304640218BF80090FFF7D9F90135216861
:100E2000A8B28142D6D8002011B0BDE8F08F0000F2
:100E3000B0B54EF23D200FF66C110322C2F2000055
:100E4000FFF70BFA002800F046824EF23D200FF625
:100E500058110522C2F20000FFF7FFF9002800F048
:100E600046824EF23D240FF648110522C2F20004DC
:100E70002046FFF7F2F9002800F0458242F62D6186
:100E80002068C0F22E01884200F0498220882E2876
:100E900000F051824EF23D240FF61C110522C2F2E1
:100EA00000042046FFF7D9F9002800F0508242F6EE
:100EB0002D512068C0F22E01884200F054824EF27B
:100EC0003D200FF6FC010522C2F20000FFF7C5F934
:100ED000002800F054824EF23D200FF6EC01032270
:100EE000C2F20000FFF7B9F9002800F054824EF278
:100EF0003D240FF6D8010522C2F200042046FFF778
:100F0000ACF9002800F0538242F62D612068C0F24F
:100F10002D01884200F057824EF23D200FF6B401B9
:100F20000522C2F20000FFF798F9002800F057826E
:100F30004EF23D200FF6A4010322C2F20000FFF79B
:100F40008CF9002800F057824EF23D240FF69001F4
:100F50000322C2F200042046FFF77FF9002800F0C8
:100F6000568242F62D512068C0F22D01884200F0D1
:100F70005A824EF23D200FF66C010522C2F20000AB
:100F8000FFF76BF9002800F05A824EF23D240FF66D
:100F90005C010522C2F200042046FFF75EF900283A
:100FA00000F0598242F62E512068C0F22E0188428C
:100FB00000F05D8242F62E612068C0F22E01884268
:100FC00000F0618220882D2800F0698242F62E61AF
:100FD0002068C0F22D01884200F06D824EF23D245F
:100FE0000FF610010522C2F200042046FFF735F982
:100FF000002800F06C8242F62E512068C0F22D01CC
:10100000884200F070824EF23D200FF2F07105220E
:10101000C2F20000FFF721F9002800F070824EF2C2
:101020003D200FF2E0710522C2F20000FFF715F932
:10103000002800F070824EF23D200FF2D0710522A0
:10104000C2F20000FFF709F9002800F070824EF2AA
:101050003D200FF2C0710622C2F20000FFF7FDF83A
:10106000002800F070824EF23D200FF2B07106228F
:10107000C2F20000FFF7F1F8002800F070824EF293
:101080003D200FF2A0710622C2F20000FFF7E5F842
:10109000002800F070824EF23D200FF2907106227F
:1010A000C2F20000FFF7D9F8002800F070824EF27B
:1010B0003D200FF280710622C2F20000FFF7CDF84A
:1010C000002800F070824EF23D200FF2707106226F
:1010D000C2F20000FFF7C1F8002800F070824EF263
:1010E0003D200FF260710622C2F20000FFF7B5F852
:1010F000002800F070824EF23D200FF2507106225F
:10110000C2F20000FFF7A9F8002800F070824EF24A
:101110003D200FF240710622C2F20000FFF79DF859
:10112000002800F070824EF23D200FF2307106224E
:10113000C2F20000FFF791F8002800F070824EF232
:101140003D200FF220710722C2F20000FFF785F860
:10115000002800F070824EF23D200FF2107107223D
:10116000C2F20000FFF779F8002800F070824EF21A
:101170003D200FF200710722C2F20000FFF76DF868
:10118000002800F070824EF23D200FF2F06107223D
:10119000C2F20000FFF761F8002800F070824EF202
:1011A0003D200FF2E0610722C2F20000FFF755F880
:1011B000002800F070824EF23D200FF2D06107222D
:1011C000C2F20000FFF749F8002800F070824EF2EA
:1011D0003D200FF2C0610722C2F20000FFF73DF888
:1011E000002800F070824EF23D200FF2B06106221E
:1011F000C2F20000FFF731F8002800F070824EF2D2
:101200003D200FF2A0610622C2F20000FFF725F890
:10121000002800F070824EF23D204CF25D61072202
:10122000C2F20000C0F60201FFF717F8002800F034
:101230006E824EF23D204CF27F610622C2F2000027
:10124000C0F60201FFF709F8002800F06C824EF2A8
:101250003D204CF26B610822C2F20000C0F6020190
:10126000FEF7FBFF002800F06A824EF23D204CF2B0
:1012700064610722C2F20000C0F60201FEF7EDFF32
:10128000002800F068824EF23D204CF27361062285
:10129000C2F20000C0F60201FEF7DFFF002800F0F6
:1012A00066824EF23D204CF279610622C2F20000C5
:1012B000C0F60201FEF7D1FF002818BFB0BD41F211
:1012C0006410C2F20000FEF7C1FF0F2828BF24F00F
:1012D00079F97E2556E241F26410C2F20000FEF771
:1012E000B5FF0F2828BF24F06DF941254AE241F2ED
:1012F0006410C2F20000FEF7A9FF0F2828BF24F0F7
:1013000061F942253EE241F26410C2F20000FEF7AC
:101310009DFF0F2828BF24F055F9432532E241F202
:101320006410C2F20000FEF791FF0F2828BF24F0DE
:1013300049F9442526E241F26410C2F20000FEF7AA
:1013400085FF0F2828BF24F03DF945251AE241F218
:101350006410C2F20000FEF779FF0F2828BF24F0C6
:1013600031F946250EE241F26410C2F20000FEF7A8
:101370006DFF0F2828BF24F025F9472502E241F22E
:101380006410C2F20000FEF761FF0F2828BF24F0AE
:1013900019F94825F6E141F26410C2F20000FEF7A7
:1013A00055FF0F2828BF24F00DF94925EAE141F245
:1013B0006410C2F20000FEF749FF0F2828BF24F096
:1013C00001F94A25DEE141F26410C2F20000FEF7A5
:1013D0003DFF0F2828BF24F0F5F84B25D2E141F25C
:1013E0006410C2F20000FEF731FF0F2828BF24F07E
:1013F000E9F84C25C6E141F26410C2F20000FEF7A4
:1014000025FF0F2828BF24F0DDF84D25BAE141F271
:101410006410C2F20000FEF719FF0F2828BF24F065
:10142000D1F84E25AEE141F26410C2F20000FEF7A1
:101430000DFF0F2828BF24F0C5F84F25A2E141F287
:101440006410C2F20000FEF701FF0F2828BF24F04D
:10145000B9F8502596E141F26410C2F20000FEF79F
:10146000F5FE0F2828BF24F0ADF851258AE141F29E
:101470006410C2F20000FEF7E9FE0F2828BF24F036
:10148000A1F852257EE141F26410C2F20000FEF79D
:10149000DDFE0F2828BF24F095F8532572E141F2B4
:1014A0006410C2F20000FEF7D1FE0F2828BF24F01E
:1014B00089F8542566E141F26410C2F20000FEF79B
:1014C000C5FE0F2828BF24F07DF855255AE141F2CA
:1014D0006410C2F20000FEF7B9FE0F2828BF24F006
:1014E00071F856254EE141F26410C2F20000FEF799
:1014F000ADFE0F2828BF24F065F8572542E141F2E0
:101500006410C2F20000FEF7A1FE0F2828BF24F0ED
:1015100059F8582536E141F26410C2F20000FEF796
:1015200095FE0F2828BF24F04DF859252AE141F2F5
:101530006410C2F20000FEF789FE0F2828BF24F0D5
:1015400041F85A251EE141F26410C2F20000FEF794
:101550007DFE0F2828BF24F035F8312512E141F235
:101560006410C2F20000FEF771FE0F2828BF24F0BD
:1015700029F8322506E141F26410C2F20000FEF7BC
:1015800065FE0F2828BF24F01DF83325FAE041F24C
:101590006410C2F20000FEF759FE0F2828BF24F0A5
:1015A00011F83425EEE041F26410C2F20000FEF7BB
:1015B0004DFE0F2828BF24F005F83525E2E041F262
:1015C0006410C2F20000FEF741FE0F2828BF23F08E
:1015D000F9FF3625D6E041F26410C2F20000FEF7B2
:1015E00035FE0F2828BF23F0EDFF3725CAE041F272
:1015F0006410C2F20000FEF729FE0F2828BF23F076
:10160000E1FF3825BEE041F26410C2F20000FEF7AF
:101610001DFE0F2828BF23F0D5FF3925B2E041F287
:101620006410C2F20000FEF711FE0F2828BF23F05D
:10163000C9FF3025A6E041F26410C2F20000FEF7B7
:1016400005FE0F2828BF23F0BDFF3F259AE041F299
:101650006410C2F20000FEF7F9FD0F2828BF23F046
:10166000B1FF2E258EE041F26410C2F20000FEF7B9
:10167000EDFD0F2828BF23F0A5FF2C2582E041F2C5
:101680006410C2F20000FEF7E1FD0F2828BF23F02E
:1016900099FF212576E041F26410C2F20000FEF7C6
:1016A000D5FD0F2828BF23F08DFF40256AE041F2C9
:1016B0006410C2F20000FEF7C9FD0F2828BF23F016
:1016C00081FF3A255EE041F26410C2F20000FEF7AD
:1016D000BDFD0F2828BF23F075FF2D2552E041F2F4
:1016E0006410C2F20000FEF7B1FD0F2828BF23F0FE
:1016F00069FF2F2546E041F26410C2F20000FEF7B8
:10170000A5FD0F2828BF23F05DFF28253AE041F210
:101710006410C2F20000FEF799FD0F2828BF23F0E5
:1017200051FF29252EE041F26410C2F20000FEF7BD
:101730008DFD0F2828BF23F045FF5F2522E041F2F1
:101740006410C2F20000FEF781FD0F2828BF23F0CD
:1017500039FF242516E041F26410C2F20000FEF7C2
:1017600075FD0F2828BF23F02DFF3E250AE041F22A
:101770006410C2F20000FEF769FD0F2828BF23F0B5
:1017800021FF3C2541F26414C2F200042046FEF71A
:101790005DFD25524BF6E5600121C2F20000C171EA
:1017A000B0BD00BF2E2D00002D2E2E2E00000000FB
:1017B0002D2E2D2E000000002E2E2D2E00000000BC
:1017C0002E2E2E2E000000002E2E00002E2D2D2D50
:1017D000000000002E2D2E2E000000002D2D0000F8
:1017E0002D2E00002E2D2D2E000000002D2D2E2D33
:1017F000000000002E2E2E2D000000002D2E2E2D7C
:10180000000000002D2E2D2D000000002D2D2E2E6D
:10181000000000002E2D2D2D2D0000002E2E2D2D30
:101820002D0000002E2E2E2D2D0000002E2E2E2EEF
:101830002D0000002E2E2E2E2E0000002D2E2E2EDE
:101840002E0000002D2D2E2E2E0000002D2D2D2ED1
:101850002E0000002D2D2D2D2E0000002D2D2D2DC4
:101860002D0000002E2E2D2D2E2E00002E2D2E2D83
:101870002E2D00002D2D2E2E2D2D00002D2E2D2E47
:101880002D2D00002E2D2D2E2D2E00002D2D2D2E38
:101890002E2E00002D2E2E2E2E2D00002D2E2E2D24
:1018A0002E0000002D2E2D2D2E0000000000000027
:1018B0004EF254219FEDD81A0020C2F2000191EDA2
:1018C000000A46F65411B0EE412AC2F2000100BFF0
:1018D0000A1822EE007A603092ED003A37EE411A93
:1018E00092ED014A92ED025A92ED036AB0F5407F03
:1018F00031EE031A21EE003A33EE422A32EE042A88
:1019000022EE003A33EE411A31EE051A21EE003A8A
:1019100033EE422A92ED043A32EE062A22EE004AD3
:1019200034EE411A31EE031A92ED053A21EE004AE7
:1019300034EE422A92ED064A32EE032A22EE003AB3
:1019400033EE411A92ED073A31EE041A21EE004AC5
:1019500034EE422A92ED084A32EE032A22EE003A91
:1019600033EE411A92ED093A31EE041A21EE004AA3
:1019700034EE422A92ED0A4A32EE032A22EE003A6F
:1019800033EE411A92ED0B3A31EE041A21EE004A81
:1019900034EE422A92ED0C4A32EE032A22EE003A4D
:1019A00033EE411A92ED0D3A31EE041A21EE004A5F
:1019B00034EE422A92ED0E4A32EE032A22EE003A2B
:1019C00033EE411A92ED0F3A31EE041A21EE004A3D
:1019D00034EE422A92ED104A32EE032A22EE003A09
:1019E00033EE411A92ED113A31EE041A21EE004A1B
:1019F00034EE422A92ED124A32EE032A22EE003AE7
:101A000033EE411A92ED133A31EE041A21EE004AF8
:101A100034EE422A92ED144A32EE032A22EE003AC4
:101A200033EE411A92ED153A31EE041A21EE004AD6
:101A300034EE422A92ED164A32EE032A22EE003AA2
:101A400033EE411A92ED173A31EE041A21EE004AB4
:101A500034EE422A32EE032A7FF43AAF2DE9F04FFA
:101A600081B02DED088B82B020EE020A41F65020A5
:101A700022EE022A41F64C2131EE400AC2F2000069
:101A8000C2F2000120EE011A91ED000A31EE022AA5
:101A900090ED001AB1EEC28AB4EEC18AF1EE10FAEE
:101AA00009DD9FEDE32A38EE403A23EE022A32EEBA
:101AB000000A81ED000A9FEDDF2A38EE413A40F23C
:101AC000F87140F2F977C2F20101C2F2010723EE88
:101AD000022A32EE011A9FEDD82AB4EEC81AF1EEAE
:101AE00010FAC8BFB0EE481A30EE410A80ED001A75
:101AF000002020EE020A30EE019AB4EEC98AF1EE1F
:101B000010FAC8BF012008703978884205D140F228
:101B10004431C2F20101096809E040F6706140F207
:101B20004432C2F20101C2F201020968116040F6BA
:101B30007069C2F20109D9F80020521A4FF23051EF
:101B4000C2F20001072A91F800800CD340450AD068
:101B5000B4EEC98A4FF00008F1EE10FAC8BF4FF09A
:101B6000010881F800804FF2315B4646C2F2000B5B
:101B70009BF8000080455FD0B8F1000F17D040F609
:101B80000402D9F800100126C2F20102116040F6E9
:101B90000801C2F201010968D9F80020511A40F287
:101BA000DC72C2F201021160864248D108E140F6BF
:101BB0000802D9F8001000260023C2F201021160C9
:101BC00040F60401C2F201010968D9F80020511A57
:101BD0004FF6DC32C2F2000211604FF6E032C2F280
:101BE00000021568B5FA85F4B1EB450FB8BF0126C0
:101BF0006409264312D06E0045F256550E44C5F2D4
:101C0000555556FB05F606EBD67505EB8506B14234
:101C1000C8BF01230BE000BF0000000005EB8504F6
:101C2000A142C8BF01231E43012E464604D14646A9
:101C3000002B18BF0D441560864200F0C18040F6AD
:101C40000C00002E4FF00001C2F20100017064D0C0
:101C500043F2E8404FF6E03340F2DC729FED770A42
:101C6000B7EE001AB7EE083AB1EE044AC2F200002D
:101C7000C2F20003C2F2010201880188008893EDDC
:101C8000002A1E2988BFB0EE401A92ED000A2328D0
:101C900088BFB0EE431AB8EEC22A21EE043AB8EE7D
:101CA000C0AA21EE020A23EE02BA30EE000AB4EE18
:101CB000CA0AF1EE10FA0CDAB4EECABAF1EE10FA72
:101CC00007DDFFF7B5F84EF23D200021C2F200001B
:101CD0000170B4EECABAF1EE10FA71DCFFF7A8F8A1
:101CE0004EF23D2041F264140021C2F20000C2F223
:101CF000000401702046FEF7A9FA0F2828BF23F040
:101D000061FC2046FEF7A2FA202121524BF6E56045
:101D10000121C2F20000C17152E04FF6DC30C2F284
:101D2000000004684FF6E030C2F2000005686E0063
:101D3000B4EB450F1EDA2846FEF7F0FD9FED3A0B97
:101D400053EC102BFEF7E4FB019020468A46FEF789
:101D5000E5FD024601980B465146FEF745FE48B99F
:101D60004EF23D2AC2F2000A5046FEF76FFA2E21CB
:101D70002AF80010B44223DD05EB45004000844200
:101D80001EDA4EF23D25C2F200052846FEF75EFA45
:101D90002D21295245F256504FF49661C5F2555007
:101DA00054FB00F000EBD07091FBF0F043F2E841FF
:101DB000C2F200010A88104400EBD070400808808D
:101DC00040F60800C2F201000068D9F80010081AB5
:101DD0004FF6DC31C2F20001096801EB4101B0EBC2
:101DE000410F0FD940F60C04C2F20104207848B923
:101DF000FFF71EF80120002120704EF23D20C2F2B4
:101E000000000170B4EEC98A00208BF80080F1EE6A
:101E100010FAC8BF0120387002B0BDEC088B01B0C9
:101E2000BDE8F08F00BF00BF333333333333E33FBC
:101E30000AD7233C6F12833ACDCC4C3F9A99993FF5
:101E4000222809D188784CF68A41C2F20001013873
:101E5000B0FA80F0400908700020704700207047F9
:101E60004FF24050002143F2EA42C2F20000C2F2B7
:101E70000002D0F89002016243F2F241C2F2000186
:101E8000C0E90521002070474FF24051C2F2000125
:101E9000D1F89022002A506118D0D1F8A822002150
:101EA0001023C2E98B310121C2F82402A2F81812D2
:101EB00002F506711369012B08BFC2F8280280B52C
:101EC0001068DAB21CF0AAFABDE880400020704722
:101ED0004FF63400C2F2000002F0DABF4FF6D42011
:101EE000C2F2000002F0D4BF4FF69400C2F200002C
:101EF00002F0CEBF4FF6F400C2F2000002F0C8BFFD
:101F00004FF63430C2F2000002F0C2BF4FF6541058
:101F1000C2F2000002F0BCBF80B54FF61420C2F23E
:101F2000000002F0B5FFBDE8804002F0A5B8000057
:101F30007047000010B582B046F65414002001AA84
:101F40006B46C021C2F20004CDE9000020461FF01C
:101F50007BF99DED012AB5EE402AF1EE10FA06D18B
:101F600041F26F209FED572AC3F68320019041F67E
:101F700094409FED551AC2F2000090ED000A81EEE8
:101F8000023AB4EEC03AF1EE10FA15DD41F6A411B2
:101F900033EE404AB7EE005AC2F2000191ED001A4A
:101FA00084EE011AB4EEC51AF1EE10FAC8BFB0EE15
:101FB000451A31EE000A0BE041F6A01133EE404A1B
:101FC000C2F2000191ED001A84EE011A30EE010A0E
:101FD000B5EEC00A9FED3E4A4CF668319FED3B1AC4
:101FE000F1EE10FAB8BFB0EE410A20EE022AC2F2BA
:101FF0000001B4EEC42AF1EE10FAC8BFB0EE430AF5
:102000000A7D80ED000A4AB14A7801F10C03002AEA
:1020100008BF0B1D19790539012904D84FF07E51ED
:10202000B7EE000A016041F25C10C2F2000090EDD0
:10203000002AB4EE402AF1EE10FA38D09FED253A8E
:1020400030EE424AB4EE402A04F108010022F1EEDB
:1020500010FA24EE033A18BFB0EE431A32EE010A2A
:1020600011ED023A11ED014A91ED005A91ED016A2C
:10207000043230EE017AC02A77EE010A23EE000A1C
:1020800024EE073A30EE812A25EE204A01ED020ABD
:1020900001ED013A26EE025A81ED004A81ED015A26
:1020A00001F11001DAD380ED002A02B010BD46F62E
:1020B0005410C022C2F2000001461FF04BFC02B0D7
:1020C00010BD00BF6F12833A00C0DA450000000067
:1020D00000401C46ABAAAA3BF0B587B004464BF6BD
:1020E0000B70C2F20000007828B14BF60C70C2F2FF
:1020F0000000007818B34BF60875C2F20005287886
:10210000002840F0E2804CF66830C2F20000017F07
:10211000032962D002296DD0012940F0D080417896
:1021200090F8212000F10C03002908BF031D186856
:10213000002A00F0BE80642104FB0100BDE040F6EF
:102140001805C2F201052878012827D1012010F0D6
:10215000E3FA40F619004DF6A041C2F20100C2F2C6
:102160000001007801EB40114CF66830C2F200002B
:10217000BF30FEF77FF84DF6227100200222C2F236
:10218000000128700A7040F61C01C2F201010870BB
:10219000012007B0BDE8F0401FF0AABC40F61B00CC
:1021A000C2F201000078012836D140F61A074CF639
:1021B0006836C2F20107C2F200063878321812F807
:1021C000DF1F081964B2431E012C107053DBDDB20F
:1021D0001F2D50D82120107060E0417800F10C02D2
:1021E000002908BF021D43F609511068614300EB46
:1021F000811062E0417800F10C0390F82120002961
:1022000008BF031D1868002A0CBF4FF47A7142F210
:10221000107104FB010050E040F61C0541F64C36FD
:10222000C2F20105C2F200062878316801EB001005
:10223000C16860B288472A78306800EB02131979C8
:10224000022900F0978040F60D070526C2F201072B
:102250003A7002EBC207120106EB470741F611463E
:10226000C2F20006377080589A68012307B0BDE8B3
:10227000F0401FF0BBBDDDB20023202D4FF0000564
:1022800038BF0125002C4FF00004B8BF01242C42B8
:1022900040F02181C5B27E2D00F21D81002918BFBA
:1022A0005FEA006000F0188101200021CDE90010F4
:1022B0003DE104EB840100EB410019F025F84BF6F9
:1022C000E5600121C2F20000C1702878002851D0D9
:1022D0004BF60C70C2F20000007800284CD042F699
:1022E0000000C4F2000002684FF480200690002035
:1022F0000590CDE9030040208DF80B00C2F30211D8
:1023000002F00F0001EB810100EB41008DF80A00A3
:10231000C2F30321C2F3023303EB830301EB430156
:102320008DF80910C2F30343C2F3015242EA82025C
:1023300003EB42024CF698438DF80820C2F20003EA
:102340001F7837B9B4F1FF3F00DC9AB122448DF811
:1023500008201F78012F06D1B4F1FF3F00DC49B1FE
:1023600021448DF809101B78022B25D1B4F1FF3FD1
:102370001FDCF0B907B0F0BD41F66E10C2F20000EC
:1023800000780238042800F29E80DFE800F003366F
:10239000475869004CF66830C2F20000817F214442
:1023A0000A0608BF0121CAB2642A28BF64218177C6
:1023B00083E020448DF80A00D2B2C9B2C0B2182A14
:1023C00024BF00228DF808203C2924BF00218DF86D
:1023D00009103C2824BF00208DF80A0003F09AFB66
:1023E00003F05CFC02A803F00FFD4BF6E560012151
:1023F000C2F20000817107B0F0BD4CF66830002CCD
:10240000C2F20000C17E00DCE1B321440A06C176BD
:1024100038D0CAB2052A37D3042134E04CF66830EC
:10242000C2F2000090F8281021440A0608BF0121DA
:10243000CAB2642A28BF642180F828103DE04CF617
:102440006830002CC2F2000090F8291000DCA1B323
:102450002144CAB20A2A28BF0A2180F829102CE098
:102460004CF66830C2F2000090F82A1021440A06A7
:1024700008BF0121CAB2FA2A28BF6FF0050180F80F
:102480002A101AE00121C176C8B29FED3C0A9FEDE7
:102490003C1A02EE100A41F6A410B8EE422AC2F22B
:1024A000000080EE020A80ED000A41F6A01020EE46
:1024B000011AC2F2000080ED001A4BF6E56001211E
:1024C000C2F2000041704BF64E700121C2F20000D2
:1024D000017007B0F0BD13700020002405F0C2FAAF
:1024E0004FF4FC654FF4917000214FF4A0721E234D
:1024F000009505F041FB03204FF495710522002360
:10250000CDE900504CF63800C0F6020005F090FD11
:102510004CF2E1600125052105224FF6FF73C0F65C
:102520000200CDE9004505F083FDCDE9004506F147
:10253000DF000A2119224FF4FC630A2405F078FD1C
:102540003878102100EB400001EB400304EB40021F
:102550004FF47840B3F59F7F88BF40F23F1393421A
:1025600003D200901846252103E000901046252153
:102570001A46252305F000FB07B0F0BD0000FA4322
:10258000CDCCCC3D0000000043F61440C4F2010065
:102590000168490544BF4FF4806101602DE9F04FA7
:1025A00081B049F2773BC2F2000B9BF80000002893
:1025B00040F020844CF68E43012003218BF800006C
:1025C000C2F200030020C0F2FF011A78C4F2020038
:1025D000F2B94CF68D42C2F200021278C2B94CF642
:1025E0009042C2F20002127892B94CF66837C2F2F9
:1025F00000077A7807F10C06002A08BF3E1D3779DC
:102600000B2F05D04CF68447C2F200073F8867B114
:102610004CF66837C2F200077A7807F10C06002AF8
:1026200008BF3E1D37790B2F03D149F276370131B0
:1026300001E049F27637C2F200073E78012E22D13E
:1026400049F26036C2F200063668F50740F069814B
:10265000B50700F16E81750700F17381350700F150
:102660007881F50600F17D81B50600F1828175065D
:1026700000F18781360604D50668012565F38F369B
:10268000066000263E7040F6180A02278161C4F2F7
:10269000020ACAF800700127CAF800704FF44037E8
:1026A000CAF800701B78EBB94CF68D43C2F20003F8
:1026B0001B78BBB94CF69043C2F200031B788BB970
:1026C0004CF66833002AC2F2000303F10C0708BF7E
:1026D0001F1D3B790B2B05D04CF68443C2F200033F
:1026E0001B8863B14CF66833002AC2F2000303F181
:1026F0000C0708BF1F1D3A790B2A40F0B08049F241
:10270000783149F2603E49F276334FF48037C2F2B5
:102710000001C2F2000EC2F200030A6801320A6030
:102720000121CAF80010DEF80020D1071EBF0168A1
:1027300021F003010160910742BF016821F00C0103
:102740000160510742BF016821F0300101601107AB
:1027500042BF016821F0C0010160D10642BF01689B
:1027600021F440710160910642BF016821F440618B
:102770000160510642BF016821F440510160110619
:1027800042BF016821F4404101600121197000BF7E
:102790000269CAF80070CAF800101978120299BBD1
:1027A000DEF80070F9071EBF016821F00301016027
:1027B000B90742BF016821F00C010160790742BFEF
:1027C000016821F030010160390742BF016821F042
:1027D000C0010160F90642BF016821F44071016047
:1027E000B90642BF016821F440610160790642BF29
:1027F000016821F440510160390642BF016821F4AB
:10280000404101600121197000BF01694BF64C7C09
:102810004CF68248C2F2000CC2F20008C9B2114361
:102820009CF8002009B200EE101A98F80010B8EEDB
:10283000C00A002900F0AE8062B146F6341144F2BD
:102840003452C2F20001C2F20002096802EB8101B7
:1028500081ED000A46F65872C2F20002ACE049F27D
:10286000783248F65C574FF47F454FF48034C2F21B
:102870000002C2F2000713680133136046F65442A7
:10288000C2F20002138807EB8307BF2B97ED000A03
:10289000BDEEC00A10EE107ABEB265F31F274FEAF4
:1028A000162606F57F0686614FF00106CAF800601D
:1028B000CAF80040876148F25C77CAF80060CAF83D
:1028C0000040C2F2000707EB830797ED000ABDEE58
:1028D000C00A10EE107AB9B265F31F274FEA112132
:1028E00001F57F018161CAF80060CAF80040876184
:1028F00003F10100CAF80060CAF80040108000F03F
:102900005E8240F27F10834240F071824CF652307A
:10291000C2F200000178002900F0608240F27F10CE
:1029200056E20568012464F301050560B5077FF5EB
:1029300092AE0568012464F38305056075077FF591
:102940008DAE0568012464F30515056035077FF534
:1029500088AE0568012464F387150560F5067FF5E8
:1029600083AE0568012464F309250560B5067FF58B
:102970007EAE0568012464F38B25056075067FF53E
:1029800079AE0568012464F30D35056036063FF520
:1029900073AE76E662B146F6341144F63452C2F2B2
:1029A0000001C2F20002096802EB810181ED000A18
:1029B00047F25852C2F2000246F654490124C2F2CC
:1029C0000009B9F8001002EB81014FF4803281ED6B
:1029D000000ACAF80020CAF80040197899BBDEF84E
:1029E0000060F1071EBF016821F003010160B1071B
:1029F00042BF016821F00C010160710742BF01680C
:102A000021F030010160310742BF016821F0C001AF
:102A10000160F10642BF016821F440710160B10616
:102A200042BF016821F440610160710642BF016844
:102A300021F440510160310642BF016821F4404158
:102A400001600121197000BF0169CAF80020CAF8AD
:102A500000400A02197899BBDEF80040E1071EBF6A
:102A6000016821F003010160A10742BF016821F064
:102A70000C010160610742BF016821F03001016073
:102A8000210742BF016821F0C0010160E10642BF99
:102A9000016821F440710160A10642BF016821F480
:102AA00040610160610642BF016821F4405101604C
:102AB000210642BF016821F44041016001211970E3
:102AC00000BF0169C9B211439CF8002009B200EEB1
:102AD000101A98F80010B8EEC00A91B162B146F62B
:102AE000341144F63452C2F20001C2F20002096805
:102AF00002EB810181ED000A47F25852C2F2000256
:102B000011E062B146F6341144F23452C2F20001CF
:102B1000C2F20002096802EB810181ED000A46F66B
:102B20005872C2F20002B9F80010012402EB8101D0
:102B30004FF4803281ED000ACAF80020CAF8004044
:102B4000197899BBDEF80060F1071EBF016821F01B
:102B500003010160B10742BF016821F00C0101606F
:102B6000710742BF016821F030010160310742BFA7
:102B7000016821F0C0010160F10642BF016821F443
:102B800040710160B10642BF016821F440610160FB
:102B9000710642BF016821F440510160310642BF15
:102BA000016821F4404101600121197000BF0169F1
:102BB000CAF80020CAF800400A02197899BBDEF86A
:102BC0000040E1071EBF016821F003010160A10779
:102BD00042BF016821F00C010160610742BF01683A
:102BE00021F030010160210742BF016821F0C001DE
:102BF0000160E10642BF016821F440710160A10655
:102C000042BF016821F440610160610642BF016872
:102C100021F440510160210642BF016821F4404186
:102C200001600121197000BF016947F65C3798F80F
:102C3000005048F25C140126C2F20007C2F2000400
:102C4000C9B2002D3D4641EA020108BF2546B9F848
:102C5000002009B200EE101A05EB82014FF4803219
:102C6000B8EEC00A81ED000ACAF80020CAF8006078
:102C7000197899BBDEF80050E9071EBF016821F002
:102C800003010160A90742BF016821F00C01016046
:102C9000690742BF016821F030010160290742BF86
:102CA000016821F0C0010160E90642BF016821F41A
:102CB00040710160A90642BF016821F440610160D2
:102CC000690642BF016821F440510160290642BFF4
:102CD000016821F4404101600121197000BF0169C0
:102CE000CAF80020CAF800600A02197899BBDEF819
:102CF0000060F1071EBF016821F003010160B10708
:102D000042BF016821F00C010160710742BF0168F8
:102D100021F030010160310742BF016821F0C0019C
:102D20000160F10642BF016821F440710160B10603
:102D300042BF016821F440610160710642BF016831
:102D400021F440510160310642BF016821F4404145
:102D500001600121197000BF006998F80010C0B22D
:102D6000002908BF3C46B9F80010104300B200EE3D
:102D7000100A04EB8100B8EEC00A80ED000A481C7E
:102D800081B2B1F5C07118BF01469CF80000A9F8E6
:102D9000001001280ED146F63410C2F2000001687E
:102DA000013101600168B1F5007F02BF00218CF89C
:102DB000001001604FF48030CAF8000017E04CF6B4
:102DC0005230C2F200000178002900F04683BF2093
:102DD000108049F25C30C2F2000006E047F658313C
:102DE0000023C2F2000113800B700121017000204A
:102DF0008BF800009BF8000010B101B0BDE8F08F27
:102E000049F2753501208BF80000C2F2000503205D
:102E10002978C0F2FF0009B1811E08E049F274313F
:102E2000C2F200010978002900F0DF83411E49F257
:102E3000763040F20009C2F20000C4F202090278C2
:102E4000012A24D149F26032C2F200021268D3078B
:102E500040F04A82930700F15182530700F15882F3
:102E6000130700F15F82D30600F16682930600F13A
:102E70006D82530600F17482120606D5D9F800203F
:102E8000012363F38F32C9F800200022027040F65C
:102E90001808C9F818100221C4F20208C8F8001076
:102EA0000121C8F800104FF44031C8F8001029780B
:102EB00099B34CF6683140F2000AC2F20001C0F248
:102EC000771A487801F10C07002808BF0F1DD7F8C2
:102ED0000080D04540F20582002400230025002612
:102EE0004146CFF62424CFF69B33CFF61255CFF6CA
:102EF000896600BF8819504540F23D824A19524503
:102F000040F23C82C818504540F23C822144514571
:102F1000F0D803460025084636E249F2743CC2F276
:102F2000000C9CF80010002900F05F8349F2603E1D
:102F3000012101254CF67443C8F80010C2F2000EBE
:102F4000C2F20003DEF80010CA071EBFD9F8002045
:102F500022F00302C9F800208A0742BFD9F80020F6
:102F600022F00C02C9F800204A0742BFD9F800201D
:102F700022F03002C9F800200A0742BFD9F8002029
:102F800022F0C002C9F80020CA0642BFD9F80020CA
:102F900022F44072C9F800208A0642BFD9F8002006
:102FA00022F44062C9F800204A0642BFD9F8002046
:102FB00022F44052C9F80020090642BFD9F8001097
:102FC00021F44041C9F80010057000BFD9F8101075
:102FD00001F00102C9B21A704CF67543C1F3400208
:102FE000C2F200031A704CF67743C1F38002C2F2BA
:102FF00000039A71C1F3C0021A71C1F300129A70F2
:10300000C1F3401119704FF48031C8F80010C8F8AE
:1030100000500278002A43D1DEF80040E2071EBFCC
:10302000D9F8002022F00302C9F80020A20742BF0D
:10303000D9F8002022F00C02C9F80020620742BF34
:10304000D9F8002022F03002C9F80020220742BF40
:10305000D9F8002022F0C002C9F80020E20642BFE1
:10306000D9F8002022F44072C9F80020A20642BF1D
:10307000D9F8002022F44062C9F80020620642BF5D
:10308000D9F8002022F44052C9F80020220642BF9D
:10309000D9F8002022F44042C9F800200122027031
:1030A00000BFD9F81020C8F80010C8F800504FF43D
:1030B0007061047801EA021102F00F05002C43D17F
:1030C000DEF80040E2071EBFD9F8002022F003021C
:1030D000C9F80020A20742BFD9F8002022F00C0254
:1030E000C9F80020620742BFD9F8002022F0300260
:1030F000C9F80020220742BFD9F8002022F0C00200
:10310000C9F80020E20642BFD9F8002022F440723C
:10311000C9F80020A20642BFD9F8002022F440627C
:10312000C9F80020620642BFD9F8002022F44052BC
:10313000C9F80020220642BFD9F8002022F44042FC
:10314000C9F800200122027000BFD9F810202D021A
:10315000D2B211434CF672420901C2F20002118050
:10316000B2F90010C1F3C36421444FF4803409B2B2
:10317000090911800121C8F80040C8F80010027840
:10318000002A43D1DEF80020D6071EBFD9F8006020
:1031900026F00306C9F80060960742BFD9F8006020
:1031A00026F00C06C9F80060560742BFD9F8006047
:1031B00026F03006C9F80060160742BFD9F8006053
:1031C00026F0C006C9F80060D60642BFD9F80060F4
:1031D00026F44076C9F80060960642BFD9F8006030
:1031E00026F44066C9F80060560642BFD9F8006070
:1031F00026F44056C9F80060120642BFD9F80020F4
:1032000022F44042C9F800200122027000BFD9F820
:103210001020D2B22A434CF67045C2F200052A8033
:10322000C8F80040C8F800100178002943D1DEF842
:103230000010CA071EBFD9F8002022F00302C9F807
:1032400000208A0742BFD9F8002022F00C02C9F8FA
:1032500000204A0742BFD9F8002022F03002C9F806
:1032600000200A0742BFD9F8002022F0C002C9F8A6
:103270000020CA0642BFD9F8002022F44072C9F8E3
:1032800000208A0642BFD9F8002022F44062C9F823
:1032900000204A0642BFD9F8002022F44052C9F863
:1032A0000020090642BFD9F8001021F44041C9F8B6
:1032B00000100121017000BFD9F8100000F00F01CB
:1032C000C0B2072988BF40F0F0019972C0F3001026
:1032D00018724FF48030C8F8000000208CF800000D
:1032E00083E10025404655E0D9F80030012666F319
:1032F0000103C9F8003093077FF5AFADD9F800306E
:10330000012666F38303C9F8003053077FF5A8ADA3
:10331000D9F80030012666F30513C9F80030130709
:103320007FF5A1ADD9F80030012666F38713C9F8FF
:103330000030D3067FF59AADD9F80030012666F348
:103340000923C9F8003093067FF593ADD9F8003012
:10335000012666F38B23C9F8003053067FF58CAD48
:10336000D9F80030012666F30D33C9F80030120693
:103370003FF584AD89E501250B4605E003460025B0
:10338000104601E0012513460021002DC0F2EE2178
:1033900018BFC81AFDF7D3FA9FED9D0B54EC10BB74
:1033A0005A462346FDF7B4F823F0BEFC4CF682469D
:1033B000C2F200063570FDF732FB4CF68E45C2F2C4
:1033C00000052978002940F09F804CF68D41C2F21B
:1033D00000010978002940F097804CF69041C2F234
:1033E00000010978002940F08F8039790B2900F01D
:1033F0008B804CF68442C2F200021288002A40F010
:103400008380B44604292FD003297DD14CF668303F
:103410002646C2F20000B0F86800404450454ED93C
:10342000002440F2000E40F200080023CFF62424CE
:10343000CFF69B3ECFF61258CFF68963C11851459F
:1034400041D900EB0802524541D900EB0E0151452C
:1034500042D920445045F1D82DE00121017047F6B2
:103460005830C2F20000C1E44CF668302646C2F281
:103470000000B0F86800A8EB000050451FD90024F8
:1034800040F2000E40F200080023CFF62424CFF6CD
:103490009B3ECFF61258CFF68963C118514512D919
:1034A00000EB0802524512D900EB0E01514513D929
:1034B00020445045F1D84FF000080B4610E04FF083
:1034C0000008E24614E04FF00108034607E04FF021
:1034D00000080B46104603E04FF00108134608466B
:1034E0000021E246B8F1000FC0F2EE2118BFC81A61
:1034F000FDF725FA5A463346FDF70AF823F014FC87
:103500008AF80080FDF78BFA2978A9B94CF68D412D
:10351000C2F20001097879B94CF69041C2F200017B
:10352000097849B93B790B2B06D04CF68441C2F29D
:1035300000010988002961D03B7949F2753440F6D1
:103540001807C2F20004C4F202070B2B02D10B23AE
:10355000002200E008222E7801210125C6B94CF690
:103560008D46C2F2000636780EB1012510E04CF609
:1035700090460125C2F2000636784EB90B2B07D0D3
:103580004CF68443C2F200031D88002D18BF0125AC
:103590004CF668334FF47F46C2F200035B7D002B8C
:1035A000134618BF43F00403002D18BF134603F55C
:1035B0007F02030CC9F818204FF48032396066F39B
:1035C0001F233A60C9F81830030A66F31F203960D8
:1035D0003A6066F31F23C9F8183039603A60C9F8B9
:1035E0001800002039603A60207049F277310020DD
:1035F000C2F20001087001B0BDE8F08F49F27534E5
:1036000040F61807C2F20004C4F20207A0E700BFA8
:10361000A5E2ECC367D8B53F43F61440C4F20100FD
:103620000168490744BF0421016010B54CF687408A
:103630000021C2F2000001704CF68840C2F2000086
:103640000078C8B341F2100043F22D52C4F20200D8
:10365000C2F200020168C1F34011117043F22C5212
:10366000C2F200021378994226D0117043F230540E
:103670000268C2F200042068C2F380028A4210D1BC
:10368000411C21604CF66831C2F2000191F8B4107F
:103690008842B8BF10BD0120FEF71EFD002020604B
:1036A00010BD411E21604CF66831C2F2000191F854
:1036B000B4104942884200DD10BD4FF0FF30FEF7E4
:1036C0000BFD0020206010BD10B543F614404CF6F1
:1036D0008744C4F20100C2F200040168C90644BF75
:1036E00010210160002020704CF68840C2F20000DA
:1036F0000078002845D04CF66830C2F200004178CE
:1037000000F10C02002908BF021D1079072838D0EB
:103710004CF69040C2F200000078002818BF10BD9F
:1037200040F61000C4F2020001684CF68E40C2F26E
:1037300000000278C1F3001181F00101914214D020
:103740000022227001704CF68D400121C2F200006F
:1037500002704BF6E560C2F20000017149F275306B
:10376000C2F20000017016F0C7FF4CF68D404CF617
:103770008C41C2F20000C2F2000102780B789A423A
:1037800000D110BD00222270007808704BF6E56071
:103790000121C2F20000017149F27530C2F200004D
:1037A0000170BDE8104016F0A7BF000043F61440BA
:1037B000C4F201000168890644BF202101602DE99F
:1037C000F04381B02DED068B9CB04CF68740002174
:1037D000C2F2000001704CF66630C2F200000078C0
:1037E000002869D140F61000C4F20200006880068B
:1037F0005CD44BF60A70C2F20000017800295BD15C
:10380000012140F67069017040F24030C2F20109B6
:10381000C2F201000168D9F80020511AC8294BD31F
:10382000D9F800104FF0000801220023ADF86E8097
:10383000ADF86C8001600DF16E001BA900F026FE52
:1038400002ACBDF86C30BDF86E200FF2E45120469A
:1038500021F0FCFE2046FCF7F9FC4FF0FF3111FA95
:1038600080F1B8EB512F30D14EF2105C82B24EF2A3
:1038700012504EF21037C2F2000CC2F20000C2F237
:1038800000070388BCF80010002000BF265C8DB242
:1038900001317E558EB29E4214D0B8EB562F00F106
:1038A000010018BF00219042F0D30CE04BF60A70E3
:1038B0000021C2F2000001701CB0BDEC068B01B00B
:1038C000BDE8F0831946ACF8001002AC2046FCF7C6
:1038D000BDFC81B2204603F0BBFD4CF66834C2F259
:1038E000000494F8B700002845D04EF2241841F6A1
:1038F000E8469FEDE68A01200027B3EE049AC2F263
:103900000008C2F2000688F8000000BFA07FB9B22C
:1039100000EE101AB8EE400A01EE100AB8EE411A95
:1039200020EE080A21EE09AA1EF04CF82AEE000A41
:10393000BDEEC00A10EE100A46F827000137B7F5B1
:10394000407FE3D1D9F80000D9F80010091A3329D3
:103950000ED2D9F80010091A322909D8D9F8001066
:10396000091A322904D8D9F80010091A3329EBD3DF
:10397000002088F800004BF60B75C2F2000528788D
:1039800030B14BF60C70C2F200000078002859D01C
:103990004EF2F810C2F200000078F8B14EF2381181
:1039A000BDF86C30BDF86E600022C2F20001043137
:1039B00031F8047CB7420DD831F8027CB74209D304
:1039C0000F889F4206D84F889F4203D34F68002F2D
:1039D00040F0F88001320C318242E9D34BF6ED60C1
:1039E000C2F20000007800287FF466AF4BF6087042
:1039F000C2F20000007800287FF45EAF4BF6097039
:103A0000C2F20000007800287FF456AF4BF60D702C
:103A1000C2F20000007800287FF44EAF287800281A
:103A20007FF44AAFBDF86E000528C0F0C58150286C
:103A300000F2A781BDF86C00503829289CBF0320F4
:103A40002077B9E140F61800BDF86C60C2F20100C1
:103A50000078012809D140F61900772EC2F2010042
:103A6000017824D839B3013924E040F61B00BDF8B1
:103A70006E70C2F201000178012920D1A7F5917181
:103A80001E295ED8002E5ED01E2E5AD840F61C018C
:103A90000022C2F20101027001200A701EF028F813
:103AA0004DF622700221C2F20000017004E70929DC
:103AB00001D80131017001200EF02EFEFCE640F627
:103AC0001400C2F20100017801290ED10021017019
:103AD000002003F0C7FF01201EF00AF840F6100096
:103AE000C2F20100006817F00FFCA7F591701E28C4
:103AF00033D8701E1D2830D840F60E00C2F20100E7
:103B00000178002900F0C48041F6543141F650326A
:103B1000C2F20001C2F200020A6041F64C3141F6E5
:103B2000BC22C2F20001C2F200020A600021017050
:103B300040F61C00C2F20100017001201DF0D8FF08
:103B4000BAE6772E43D840F61A050026C2F20105E0
:103B50002878002843D0013847E040F61C040021B3
:103B60004FF49072C2F2010400911621207800EB0C
:103B7000C00001EB400100200B4603F0FDFF21785F
:103B8000772E00F2D38000291ABF481E2070002033
:103B900040F60D010522C2F20101087000EBC001E0
:103BA00002EB410141F61142C2F20002117041F6EE
:103BB0004C31C2B2C2F2000110010968085801EB91
:103BC0000211D8E0B847002016F082F974E640F6FA
:103BD0001A00C2F2010006781E2E3FF66DAE40F6C6
:103BE0001A05701C0026C2F201052870002003F09F
:103BF00039FF4FF4FC674FF4917000214FF4A0722D
:103C00001E23009703F0B8FF03204FF4957105229F
:103C10000023CDE900704CF63800C0F6020004F035
:103C200007FA4CF2E1600127052105224FF6FF73E8
:103C3000C0F60200CDE9006704F0FAF904F1DF00F4
:103C40000A2119224FF4FC63CDE900670A2404F02D
:103C5000EFF92878102100EB400001EB400304EB62
:103C600040024FF47840B3F59F7F88BF40F23F1386
:103C7000934203D200901846252103E0009010469D
:103C800025211A46252303F077FF15E6920A863D83
:103C90004BF60871002001244EF2F812C2F2000126
:103CA0002870C2F200020C704BF6E561C2F200010E
:103CB0000C704C700C70CC704C704C710C718C7022
:103CC0008C71107041F66412C2F2000210604BF663
:103CD0000472C2F20002106041F66F10FF22C2F2BD
:103CE0000000027041F67010C2F20000027041F64E
:103CF0007110C2F20000027041F66C1042F20F72B5
:103D0000C2F20000028041F66A10CC71C2F20000DB
:103D1000028041F66810C2F20000028007F0DCFF6A
:103D20004BF64E70C2F200000470C5E541F6543007
:103D300040F60D02C2F20000C2F2010200680078F3
:103D400001388842D1BF0846481C2070C1B21070AB
:103D5000052200EBC00002EB400041F61142C2F226
:103D60000002107041F64C30C2F2000002680801F7
:103D7000105802EB01118A68097901231EF036F808
:103D80009AE5A0F15F014B2907D8BDF86C005038C7
:103D900029289CBF022020770EE0C3280CD3B0F561
:103DA000877F2BD8BDF86C10503929299CBF012181
:103DB0002177B0F5807F21D8BDF86C00A03850285D
:103DC0001CD894F86000411E072908D80220DFE8BB
:103DD00001F00B0406080606060A042004E0012090
:103DE00002E0082000E0102084F8600000F02EF8C7
:103DF0004BF6E5600121C2F20000017141F66C1042
:103E000042F20F710022C2F2000001804BF60470F2
:103E1000C2F20000026041F66A10C2F200000180A6
:103E200041F66810C2F20000018007F0D1FB43E5C3
:103E3000546F7563687061642078203D202564208C
:103E40002079203D2025640D0A000000F0B583B0E4
:103E50004EF258209FED850A9FED851A9FED852A29
:103E60009FED813A1E2141F6E4324FF47843BBEED8
:103E7000014AC2F200000430CEB20E2905EE106AEB
:103E8000B8EE455A0AD825EE005A35EE015ABDEE75
:103E9000C55A15EE106AF543344609E025EE045A7A
:103EA000FF24002535EE035ABDEEC55A15EE106A03
:103EB00003EA042406F0FC06EDB244EAC60646EA2C
:103EC000D5054E1EF4B2032E05EE104AB8EE455A43
:103ED00020F8045C0ED202F1FF070024002605EE54
:103EE000107AB8EEC55A25EE025ABDEEC55A15EE47
:103EF000105A17E00F2E0BD225EE005A35EE015A5C
:103F0000BDEEC55A15EE104AE54326460AE000BF4D
:103F100025EE045AFF26002535EE035ABDEEC55A9C
:103F200015EE104A03EA062704F0FC0647EAC60726
:103F3000EEB247EAD6078E1EF5B2032E05EE105AF2
:103F4000B8EE455A20F8027C0CD205EE102A002467
:103F50000026B8EEC55A25EE025ABDEEC55A15EE3A
:103F6000105A17E00F2E0BD225EE005A35EE015AEB
:103F7000BDEEC55A15EE104AE54326460AE000BFDD
:103F800025EE045AFF26002535EE035ABDEEC55A2C
:103F900015EE104A03EA062704F0FC06A2F2FD2201
:103FA000033947EAC607EEB247EAD60720F8067B90
:103FB0007FF462AF4CF66835C2F2000595F86040B8
:103FC000022C4FD34BF6C8104FF400714FF400761B
:103FD000C0F6020050F8247041F64C10C2F2000006
:103FE00087604068FCF7F3F841F658104FF4007111
:103FF000C2F2000087604068FCF7E9F84EF2145006
:1040000047F2A0472246C2F20000C0F60207CDE9FF
:10401000000604EB440007EB80004188436843F24C
:10402000FC40C2F200001CF037FC4EF6205095F820
:104030006020C2F20000CDE9000602EB420007EB6F
:1040400080004188436843F20850C2F200001CF02F
:1040500023FC95F8600047F29821C2F20101B6FBFB
:10406000F0F0088003B0F0BD0000FF43721C9741E0
:10407000ABAA62C2ABAAAA3E4CF668313220C2F2A9
:10408000000191F8662052B14A7801F10C03002A30
:1040900008BF0B1D19790339022938BF2120F0B55B
:1040A00081B040F2F27EC2F2010EBEF800108842EA
:1040B00075D94BF6DC6040F2F07C2A22002501F134
:1040C000BF0301F1BE04C2F20000C2F2010C00689D
:1040D0009CF8006002804BF6E062002EC2F2000203
:1040E000126815806AD0812616801580FF251580FC
:1040F0002B250580A5B2E4B22D0A158014809CB250
:10410000DBB2240A148013802C2303804FF6142082
:10411000C2F2000090F83430012B00F0BE80012381
:10412000846D80F8343090F83530012B40F0B28047
:1041300040F67463C2F2010303EB412303F581757A
:10414000022380F8353000234365036886681F68C2
:10415000402E2E4627F480271F604FF07F075F60B8
:1041600008BF16469E6008BF2A46DA603F25C26D2A
:1041700005FA02F2A2601A6842F016021A605A6941
:1041800042F080025A61006C00281EBF186840F09F
:1041900008001860186840F0010018607DE000F128
:1041A000BD034FF4FC60EF2B28BFEF23BD2B5ED87F
:1041B0000090194680208022BE235CE08026158076
:1041C000158016802B260680A6B2360A1680E6B227
:1041D00016809EB2DBB2360A168013802C23038031
:1041E0004FF61420C2F2000090F83430012B5FD05B
:1041F0000126D0F858E080F8346090F83560012E40
:1042000053D140F67466C2F2010606EB4123022147
:1042100080F8351000211E464165016885680C68EC
:10422000402D24F480240C604FF080044C6008BFC3
:1042300016468E6008BF1A46CA603F23C26D03FA55
:1042400002F2CEF808200A6842F016020A604A69B3
:1042500042F080024A61006C00281EBF086840F0EE
:1042600008000860086840F00100086020E0009045
:104270008020BE21802203F07FFC4BF6EE600021FF
:10428000C2F20000017046F63810C2F20000017060
:1042900001B0F0BD002280F8342000208CF800002E
:1042A000481CAEF8000001B0F0BD002180F83410C9
:1042B00001208CF8000001B0F0BD000010B549F2FB
:1042C000773E49F2763C01210022C2F2000EC2F292
:1042D000000CC4F202028EF800109CF80030012B92
:1042E0001CD149F26033C2F200031B68D80727D102
:1042F00098072CD4580731D4180736D4D8063BD4A5
:10430000980640D4580645D4180604D510680123F1
:1043100063F38F30106000208CF800000520C0F29D
:10432000FF00906140F618000222C4F20200026011
:1043300001604FF44031016000208EF8000010BD94
:104340001068012464F3010010609807D2D510684A
:10435000012464F3830010605807CDD51068012450
:1043600064F3051010601807C8D51068012464F3C1
:1043700087101060D806C3D51068012464F30920A3
:1043800010609806BED51068012464F38B2010607D
:104390005806B9D51068012464F30D301060180672
:1043A000B4D4B8E710B549F2773E49F2763C012122
:1043B0000022C2F2000EC2F2000CC4F202028EF819
:1043C00000109CF80030012B1CD149F26033C2F27E
:1043D00000031B68D80727D198072CD4580731D47D
:1043E000180736D4D8063BD4980640D4580645D48E
:1043F000180604D51068012363F38F301060002085
:104400008CF800000620C0F2FF00906140F6180012
:104410000222C4F20200026001604FF440310160E8
:1044200000208EF8000010BD1068012464F3010024
:1044300010609807D2D51068012464F383001060DF
:104440005807CDD51068012464F3051010601807D3
:10445000C8D51068012464F387101060D806C3D54E
:104460001068012464F3092010609806BED5106816
:10447000012464F38B2010605806B9D5106801241C
:1044800064F30D3010601806B4D4B8E72DE9F04F8E
:1044900089B040F27004CDE90312CDE901309020DB
:1044A00000254FF480560DF123010DF12202012366
:1044B000C2F201048DF823008DF8225000962046A8
:1044C00001F0DEFF0DF123010DF122022046012350
:1044D0008DF823508DF82250009601F0D1FF9DF801
:1044E00022700DF123010DF12202204601238DF8E7
:1044F00023508DF82250009601F0C2FF9DF8220053
:1045000041F200034EF6FC52CEF20003CEF200025E
:1045100040EA072080B2C10818680691C00728D178
:1045200041F6AC10C2F200000068116841F08071E1
:1045300011605D60196841F0010119604DF68361F9
:10454000C4F21B31A0FB0101880C6421484300BF69
:104550005968814208D25968814205D2596881421E
:1045600002D259688142F3D3186820F00100186024
:1045700014E040F67060C2F2010001680268521A4D
:10458000022A0BD20268521A012A07D80268521A6C
:10459000012A03D80268521A022AEFD340F27004AB
:1045A000D02000264FF480570DF123010DF1220297
:1045B0000123C2F201048DF823008DF822600097D8
:1045C000204601F05DFF0DF123010DF1220220468E
:1045D00001238DF823608DF82260009701F050FFD1
:1045E0009DF822500DF123010DF1220220460123F6
:1045F0008DF823608DF82260009701F041FF9DF84F
:10460000220040F6706B4FF0000AC2F2010B40EA44
:10461000052080B2C008059040F2700790200DF18F
:1046200023040DF122088DF822604FF480560123F7
:104630004FF00009C2F201078DF8230021464246DF
:104640000096384601F01CFF3846214642460123B9
:104650008DF823908DF82290009601F011FF9DF8BF
:10466000225038462146424601238DF823908DF88A
:104670002290009601F004FF9DF8220041F2000311
:10468000CEF2000340EA0520C00807901868C00772
:1046900030D141F6AC104EF6FC51C2F20000CEF221
:1046A000000100680A46096841F080711160C3F892
:1046B00004900022196841F0010119604DF68361F0
:1046C000C4F21B31A0FB0101880C6421484300BFE8
:1046D0005968814208D25968814205D2596881429D
:1046E00002D259688142F3D3186820F001001860A3
:1046F00018E000BFDBF80000002200BFDBF800106C
:10470000091A02290ED2DBF80010091A012909D86A
:10471000DBF80010091A012904D8DBF80010091A87
:104720000229EBD340F27007D0200DF123090DF1DF
:1047300022068DF822204FF4805801230024C2F273
:1047400001078DF8230049463246CDF800803846EF
:1047500001F096FE38464946324601238DF8234043
:104760008DF82240CDF8008001F08AFE9DF822509D
:1047700038464946324601238DF823408DF82240C1
:10478000CDF8008001F07CFE079A002A1EBF9DF83C
:10479000220040EA05205FEAD00009D0059910FA0E
:1047A00081F040080590069812FA80F040080690C3
:1047B00004980AF1010A00268245FFF42DAFDDF8C6
:1047C00018E040F6286140F62C62C2F20102C2F203
:1047D00001011FFA8EF092ED002A00EE100AB8EEE9
:1047E000400A91ED001ADDF81480B4EEC01AF1EE23
:1047F00010FA04DCB4EEC02AF1EE10FA09DAB4EED5
:10480000C01AF1EE10FA55DBB4EEC02AF1EE10FA40
:1048100050DC40F64C6740F658621FFA88F0C2F24E
:104820000102C2F2010701EE100A92ED003AB8EE61
:10483000411A97ED004AB4EEC14AF1EE10FA0DDCD0
:10484000B4EEC13AF1EE10FA08DB40F66C6C40F6BB
:104850005063C2F2010CC2F2010319E0B4EEC14A86
:10486000F1EE10FA26DBB4EEC13AF1EE10FA21DCDB
:1048700040F66C6C40F6586240F6506340F64C6768
:10488000C2F2010CC2F20102C2F20103C2F201073C
:1048900040F6486640F6346540F62C640121C2F2C9
:1048A0000106C2F20105C2F2010440F62860C2F21C
:1048B000010041E140F63060B4EEC02AC2F20100CE
:1048C000F1EE10FA90ED001A04DCB4EEC01AF1EE2D
:1048D00010FA09DAB4EEC02AF1EE10FA51DBB4EEA8
:1048E000C01AF1EE10FA4CDC40F6546340F65C6CF2
:1048F0001FFA88F0C2F2010CC2F2010301EE100AA5
:104900009CED002AB8EE411A93ED003AB4EEC13A9C
:10491000F1EE10FA09DCB4EEC12AF1EE10FA04DB74
:1049200040F66C62C2F2010215E0B4EEC13AF1EE5B
:1049300010FA26DBB4EEC12AF1EE10FA21DC40F6C3
:104940005C6C40F66C6240F65463C2F2010CC2F239
:104950000102C2F2010340F6506740F6386640F6A5
:10496000486540F6306440F62C600221C2F201072F
:10497000C2F20106C2F20105C2F20104C2F2010054
:10498000DAE040F63C6040F64061C2F20100C2F25B
:10499000010190ED001A91ED002AB4EEC01AF1EE7B
:1049A00010FA04DCB4EEC02AF1EE10FA09DAB4EE23
:1049B000C01AF1EE10FA55DBB4EEC02AF1EE10FA8F
:1049C00050DC40F6586740F660621FFA88F0C2F289
:1049D0000102C2F2010701EE100A92ED003AB8EEB0
:1049E000411A97ED004AB4EEC14AF1EE10FA0DDC1F
:1049F000B4EEC13AF1EE10FA08DB40F6646C40F612
:104A00006C63C2F2010CC2F2010319E0B4EEC14AB8
:104A1000F1EE10FA26DBB4EEC13AF1EE10FA21DC29
:104A200040F6646C40F6606240F66C6340F658678E
:104A3000C2F2010CC2F20102C2F20103C2F201078A
:104A400040F6406640F63C6540F6486440F6346007
:104A50000321C2F20106C2F20105C2F20104C2F250
:104A6000010069E040F64460B4EEC02AC2F20100E1
:104A7000F1EE10FA90ED001A04DCB4EEC01AF1EE7B
:104A800010FA0BDAB4EEC02AF1EE10FAC0F241814E
:104A9000B4EEC01AF1EE10FA00F33B8140F65C630D
:104AA00040F6686C1FFA88F0C2F2010CC2F20103F2
:104AB00001EE100A9CED002AB8EE411A93ED003A7F
:104AC000B4EEC13AF1EE10FA09DCB4EEC12AF1EE0F
:104AD00010FA04DB40F66462C2F2010217E0B4EEA1
:104AE000C13AF1EE10FAC0F21A81B4EEC12AF1EE29
:104AF00010FA00F3148140F6686C40F6646240F6E8
:104B00005C63C2F2010CC2F20102C2F2010340F680
:104B10006C6740F6446640F6406540F6386440F6FF
:104B200048600421C2F20107C2F20106C2F2010587
:104B3000C2F20104C2F201009CED002A93ED003A9A
:104B400092ED004A97ED005A95ED006A96ED007AD5
:104B5000D0ED000AD4ED001A33EE423A31EE422A8B
:104B600035EE445A34EE411A37EE464A30EE466A84
:104B700031EEE07A30EE600AF7EE000A82EE032AA8
:104B800080EE070A86EE044A81EE051A9FED733A1D
:104B9000B5EEC02A30EEC25A31EE201A30EEC46AA9
:104BA000F1EE10FAB5EEC00AB8BFB0EE432AF1EE4E
:104BB00010FAB5EEC04AB8BFB0EE430AF1EE10FAF3
:104BC000B5EEC05AB8BFB0EE434AF1EE10FAB5EEFA
:104BD000C01AB8BFB0EE435AF1EE10FAB5EEC06A93
:104BE000B8BFB0EE431AF1EE10FAB4EEE02AB8BF47
:104BF000B0EE436AF1EE10FAB4EEE00AC8BFB0EED0
:104C0000602AF1EE10FAB4EEE04AC8BFB0EE600AD6
:104C100020EE022AF1EE10FAB4EEE05AC8BFB0EE70
:104C2000604AF1EE10FAB4EEE01AC8BFB0EE605A76
:104C300024EE050AF1EE10FAB4EEE06AC8BFB0EE59
:104C4000601AF1EE10FAC8BFB0EE606A26EE011AE3
:104C500003290ED002291BD0012928D19FED403A0B
:104C60009FED404A31EE001A32EE002A21EE030A8F
:104C700038E09FED3B3A31EE001A9FED3A4A32EEB2
:104C8000000A21EE032A20EE041A32EE030A2BE07A
:104C90009FED343A32EE002A9FED314A31EE000AA0
:104CA00022EE031A20EE040A31EE031A1CE032EE63
:104CB000002A04290ED19FED2A3A9FED2A4A31EEAF
:104CC000000A20EE030A22EE041A30EE030A31EE47
:104CD000041A09E09FED243A31EE000A9FED234AC1
:104CE00020EE030A22EE041A0399DDE9010210B155
:104CF000A2F800E008E0BDEEC11ABDEEC00A11EE58
:104D0000100A10EE108A1080A1F8008009B0BDE8EA
:104D1000F08F1FFA88F001EE100AB8EE411A40F643
:104D20006C6C40F6606240F6546340F64C6740F6A7
:104D3000446640F63C6540F630640021C2F2010C46
:104D4000C2F20102C2F20103C2F20107C2F201067D
:104D5000C2F20105C2F20104A7E500BF0000000095
:104D60000000F04200002043000070430000A04318
:104D700070B581B04FF2EC7C00210091C2F2000CC2
:104D80009CF83C10012900F0818002680121102567
:104D90008CF83C101FFA82FE092A4FEA4E0111FAE4
:104DA00082F34FF0070188BF1E3B01FA03F488BF6E
:104DB0000C25DCF800104E5926EA04044C51846896
:104DC00004FA03F34C5923434B514368062B05D88F
:104DD00003EB830301F13400053B0BE003EB830499
:104DE0000C2B87BF01F12C00A4F1410301F130002D
:104DF000A4F123031F2405689C400EFA03F325EA5F
:104E00000404046006683343036042F20430C4F2D1
:104E10000100A0F54173994235D1122A04D10168ED
:104E200041F4800101602EE022F0010110292AD115
:104E30000168102A41F40001016024D141F6AC1050
:104E40004DF68361C2F20000C4F21B310068A0FB82
:104E50000101880C00EB8000400001E0009801385F
:104E60000090009878B1009801380090009850B1F7
:104E7000009801380090009828B1009801380090FF
:104E800000980028EAD100208CF83C0001B070BDE9
:104E9000F0B581B00446002048F2B5130821009017
:104EA00041F6AC10C1F64E33C2F200000268D4E9FC
:104EB000166037688140A2FB032539420CD0226876
:104EC00013685B0708D5136823F004031360B1600F
:104ED000616D41F00101616501218140394208D0D5
:104EE00022685269120604D5B160616D41F0020179
:104EF000616504218140394208D022681268920716
:104F000004D5B160616D41F00401616510218140FB
:104F1000394215D020680268120711D5B1600268C5
:104F20000168520306D4C9055EBF016821F008017B
:104F3000016001E0080342D4216C09B12046884792
:104F4000E16D202000FA01F23A4245D02068036862
:104F5000DB0641D5B26094F835300268052B1ED1CE
:104F600022F016020260426922F080024261226C45
:104F70000AB9A26C1AB1026822F0080202603F204E
:104F80008840B060012084F83500002084F83400A7
:104F9000216D002958D02046884701B0F0BD016836
:104FA000520310D4C90513D4016821F01001016027
:104FB000012084F83500002084F8340008E0A16C5A
:104FC0000029BBD1BCE7080302D4616C11B903E02E
:104FD000E16B09B120468847606DA8B3606DC007DA
:104FE0002ED00521A80A84F8351021680A6822F01D
:104FF00001020A60009A0132824200921AD80A68BD
:10500000D20717D0009A01328242009212D80A6861
:10501000D2070FD0009A0132824200920AD80A6861
:10502000D20707D0009A01328242009202D80A6861
:10503000D207DFD1012084F83500002084F8340045
:10504000E16C09B12046884701B0F0BD40F67063BD
:105050000028C2F2010319686CD02DE9F041022248
:1050600080F83520002280F83420D0E90024D0E9EF
:1050700008CE156825F0010515601568ED071CD0F0
:105080001D686D1A052D14D81568ED0715D01D681B
:105090006D1A052D0DD81568ED070ED01D686D1A17
:1050A000052D06D81568ED0707D01D686D1A052D6A
:1050B000E3D903232024032163E048F23F0311686E
:1050C00000F10808BEF1040FCFF2100301EA03015A
:1050D00041EA040398E8F001C16943EA040343EAA2
:1050E000050343EA060343EA070343EA080341EAE8
:1050F000030141EA0C0320D1D0E90BE143EA0E039E
:10510000BEF1000F41EA030111605169856A21F087
:10511000030141EA050141F0040C14D0B8F5005F29
:1051200036D0B8F1000F44D1022D45D0012D39D031
:105130004DB941E00121084670471360516921F0E3
:10514000070141EA0E0C6FF00F0140F2FF33C2F885
:1051500014C0002451FA82F19A434AF6AB23CAF6EE
:10516000AA235F2988BF04328265A1FB03131909B2
:1051700015A3595C3F23C16503FA01F10123916036
:105180000021446580F83530BDE8F041084670479D
:10519000032DD8D8012340240121DFE805F0020DBA
:1051A0000203EEE7AEF1C071B1FA81F1490939B9F4
:1051B000C9E7032D04D3C6D1CEF300610029C2D0C4
:1051C000012340240121DCE700061016000610161A
:1051D0002DE9F04740F6706EC2F2010EDEF8005085
:1051E00090F83520022A25D1D0F800A0DAF8002066
:1051F000D20542BF4FF480714165BDE8F087D0E928
:10520000162C2024166804FA0CF4264219D0416D9D
:1052100000291CBF416D5FEAC17124D1302101FA20
:105220000CF19160012180F83510002180F83410D4
:10523000BDE8F087002180F8341080214165BDE889
:10524000F0874E1C66D0002940F08B80416DC90765
:10525000DDD120214165002180F83410012180F842
:105260003510BDE8F087DEF8001090F83530022BDD
:105270004AD1DAF8003023F01603CAF80030DAF821
:10528000143023F08003CAF81430036C0BB9836C1C
:105290002BB1DAF8003023F00803CAF80030DAF84E
:1052A000003023F00103CAF80030DAF80030DB07E1
:1052B00000F08C80DEF800305B1A052B1BD8DAF882
:1052C0000030DB0700F08280DEF800305B1A052B2F
:1052D00011D8DAF80030DB0778D0DEF800305B1A3E
:1052E000052B08D8DAF80030DB076FD0DEF8003085
:1052F0005B1A052BD9D920214165002180F8341093
:10530000032180F8351089E7002180F834108021CE
:10531000416583E704210125082601FA0CF105FA0D
:105320000CF506FA0CF600BF476DFF077FF46FAF70
:1053300017683E4204D0436D43F001034365966015
:105340003D4204D0436D43F002034365956039420A
:1053500004D0436D43F00403436591602742E3D0DA
:1053600055E7466DF6077FF452AF082606FA0CF8AB
:10537000012606FA0CF9042606FA0CF6DEF80030CF
:105380005B1B8B423FF665AF176818EA070F05D025
:10539000436D43F001034365C2F8088019EA070F23
:1053A00005D0436D43F002034365C2F808903E42C6
:1053B00004D0436D43F0040343659660274204BF65
:1053C000436D5FEAC3737FF422AFD7E73F2101FA51
:1053D0000CF19160012180F83510002180F8341023
:1053E0001CE700002DE9F04F82B041F6004308228F
:1053F0004FF0010B4FF000084FF000094FF0000C88
:10540000C4F20203984200F13E4308BF072203F1B1
:10541000FF734FEAB327072F38BF4FEAB32243F693
:1054200000430092C4F201030CE000BF0CF1010C38
:1054300008F1020809F10409BCF1100F04BF02B021
:10544000BDE8F08F0E680BFA0CFA16EA0A0FEDD0E1
:10545000D1F804E04EF01006122E1ED10E690F2E68
:1054600009D8B7B24BF6FF7222FA07F7FF071CBF45
:1054700047A252F826606FF0030509F01C070F22BF
:1054800005EA5C04BA4006FA07F70444256A25EAEF
:1054900002023A432262D1F804E0032405680EF0C8
:1054A0000302BEF1120F04FA08F402FA08F225EA28
:1054B00004056FEA040642EA0502026014D80BFAFA
:1054C0000EF212F0061F0FD0CA68846802FA08F2C2
:1054D000344022438260CEF30012446802FA0CF298
:1054E00024EA0A0422434260C2688C68324004FA0B
:1054F00008F42243C2605FEACE0297D5002209F089
:105500000C060F25019243F64402B540C4F2020294
:105510001746126842F480423A603A6802F48042C8
:1055200001922CF00302019F1A444FF60847CFF670
:10553000FF773C46D759AF43009D05FA06F637433F
:1055400017511A684E6842EA0A07F50358BF22EA63
:105550000A071F60B5035A6842EA0A0758BF22EAE1
:105560000A075F60F5029A6842EA0A0758BF22EA12
:105570000A0743F60C429F60B602C4F201021546C8
:10558000126842EA0A0758BF22EA0A072F604DE76D
:105590000000000001000000020000000300000005
:1055A00004000000050000000600000007000000E5
:1055B00008000000090000000A0000000B000000C5
:1055C0000C0000000D000000000000000F000000B3
:1055D00070B585B0016843F60046C4F200068A68DB
:1055E000A6F58063994204924FF0402208BFA6F5C9
:1055F0000062936803934B68029353680193436876
:1056000043F40073B3F5007F7DD1049B9B0744BF37
:10561000029B5FEA036300F1E180039BDB074DD04F
:10562000019B5B064AD5D368C46AA51CC56223806A
:10563000438E013B4386438E002B3FD1536823F0BA
:1056400060035360438DCBBB0123B14280F84130EE
:1056500034D14EF22413C2F200031B7873BB4CF614
:10566000513CC2F2000C9CF800302BB14EF22513D5
:105670000126C2F200031E7041F648260123C2F241
:10568000000633704CF668368CF80030C2F2000623
:10569000757806F10C04002D08BF341D26790B2EF9
:1056A00002BF4CF65236C2F2000633704EF2281397
:1056B000C2F200031E6806F5C0761E60039B5B06FF
:1056C00044BF019B5FEA836300F1DF80049B1B07FB
:1056D00044BF029B5FEA83637ED54B6823F0A0033F
:1056E0004B60536823F06003536000220092896886
:1056F00000910099012180F84110416C41F00401B2
:10570000416405B070BD039B9B0744BF019B5FEAEA
:10571000036300F1D180049BDB074DD0029B5B0645
:105720004AD5CB68C56AAC1CC4622B80438E013B52
:105730004386438E002B3FD14B6823F060034B60C0
:10574000438DCBBB0123B14280F8413034D14EF2BE
:105750002413C2F200031B7873BB4CF6513CC2F217
:10576000000C9CF800302BB14EF225130126C2F23A
:1057700000031E7041F648260123C2F20006337072
:105780004CF668368CF80030C2F20006757806F1E7
:105790000C04002D08BF341D26790B2E02BF4CF6D9
:1057A0005236C2F2000633704EF22813C2F20003E2
:1057B0001E6806F5C0761E60049B5B0644BF029B14
:1057C0005FEA836300F1CD80039B1B0744BF019B0D
:1057D0005FEA836300F1D58005B070BD436A9C1C0D
:1057E00044621B88CB60438D013B4385438D002B76
:1057F0007FF413AF4B6823F0A0034B60438E002B64
:105800007FF40BAF0123B14280F841307FF405AF44
:105810004EF22413C2F200031B78002B7FF4FDAE7E
:105820004CF6513EC2F2000E9EF800302BB14EF203
:1058300025130124C2F200031C7041F648234FF0E7
:10584000010CC2F2000383F800C08EF800C04CF6D1
:10585000683EC2F2000E9EF801400EF10C03002CCF
:1058600008BF0EF104031B790B2B02BF4CF6523319
:10587000C2F2000383F800C04EF22813C2F2000304
:105880001C6804F5C0741C60C7E6536823F060030D
:1058900053604B6823F0A0034B6000230093CB6858
:1058A00000938B680093009B012380F84130436C88
:1058B00043F00203436409E7436A9D1C45621B8869
:1058C000D360438D013B4385438D002B7FF423AF91
:1058D000536823F0A0035360438E002B7FF41BAF6B
:1058E0000123B14280F841307FF415AF4EF224130A
:1058F000C2F200031B78002B7FF40DAF4CF6513E33
:10590000C2F2000E9EF800302BB14EF22513012595
:10591000C2F200031D7041F648234FF0010CC2F2A1
:10592000000383F800C04CF668338EF800C0C2F262
:1059300000035D7803F10C04002D08BF1C1D2379C2
:105940000B2B02BF4CF65233C2F2000383F800C0A7
:105950004EF22813C2F200031D6805F5C0751D60E4
:10596000D9E64B6823F060034B60536823F0A00333
:105970005360012380F84130436C43F002034364D9
:1059800022E7536823F0A00353604A6822F06002C4
:105990004A60012180F84110416C41F004014164EA
:1059A00005B070BD2DE9F04F87B0002740F6000527
:1059B00004460697CDE90477CDE90277C4F20205E3
:1059C0000068A5F5E631884202D007B0BDE8F08F47
:1059D00040F25C104FF001094FF0060A4FF0030847
:1059E0004FF0020B02AEC4F24720C0F8009043F61D
:1059F00030000197C4F20200016941F400410161E5
:105A0000016901F40041019101990197016841F098
:105A100001010160016801F0010101910199019703
:105A2000016841F0040101603146006800F00400A3
:105A300001900198CDF818A0CDE90498CDF80CB0EC
:105A40004FF400400290A5F50060FFF7CBFC4FF447
:105A5000A050CDE9058ACDE903B931460290284628
:105A6000FFF7C0FC05203146CDE905804FF400600A
:105A7000CDE903B902902846FFF7B4FC4FF6340590
:105A800046F210094FF0040A4FF4403B4FF0C0605B
:105A90004FF400524FF480634FF48071C2F200055E
:105AA000C4F20209C5E908BAC5E90A872F63C5E946
:105AB00000904FF40060C5E902772B61C5E905024B
:105AC0002846E961FFF7C2FA4FF6D426402009F1D3
:105AD0007801E563C2F20006C6E908BAC6E90A879A
