:020000040800F2
:10000000000A00209D010008314901080DC10008C7
:100010002D490108290D000825A101080000000054
:10002000000000000000000000000000515801081E
:10003000D921000800000000414901086D5D010858
:10004000B7010008B7010008B7010008B7010008B0
:10005000B7010008B7010008B7010008B7010008A0
:100060003D270008B701000869270008792100082A
:10007000B7010008B7010008B7010008B701000880
:1000800085210008B7010008B7010008B701000882
:10009000B7010008B7010008B7010008A127000850
:1000A000B7010008B7010008B7010008B701000850
:1000B000B7010008B7010008C95D0108B7010008D1
:1000C000B7010008B7010008B7010008B701000830
:1000D000B7010008B7010008B7010008B701000820
:1000E00011270008B7010008B7010008B701000890
:1000F000B7010008B7010008B7010008B701000800
:10010000B7010008B7010008F55D0108B701000854
:10011000B7010008B7010008315E0108016101085C
:10012000912100089D210008A9210008B52100089F
:10013000B7010008B7010008B7010008B7010008BF
:10014000B7010008B7010008B701000835490108E8
:10015000B7010008C1210008B7010008417C01086F
:10016000B7010008B7010008B7010008B70100088F
:10017000B7010008B7010008B7010008000000003F
:10018000B7010008B7010008DFF80CD000F0F6FC5A
:10019000004800471DF10108000A0020064880477A
:1001A00006480047FEE7FEE7FEE7FEE7FEE7FEE75C
:1001B000FEE7FEE7FEE7FEE7715D01088901000842
:1001C0002DE9F05F0546002092469B46884606468C
:1001D000814640241BE0284641464746224600F01F
:1001E000EBFA53465A46C01A914110D311461846AD
:1001F000224600F0D2FA2D1A67EB01084F4622463C
:100200000120002100F0C9FA17EB00094E41201E21
:10021000A4F10104DFDC484631462A464346BDE8E6
:10022000F09F40EA01039B0703D009E008C9121FB1
:1002300008C0042AFAD203E011F8013B00F8013BA0
:10024000521EF9D27047D2B201E000F8012B491ECC
:10025000FBD270470022F6E710B513460A46044663
:100260001946FFF7F0FF204610BD421E12F8013F6D
:10027000002BFBD111F8013B02F8013B002BF9D117
:10028000704730B505462A460B4612F8010B13F8A5
:10029000014B08B1A042F8D01CB1002802D06D1C5F
:1002A000F1E7284630BD10B5044604E00B7800F8AD
:1002B000013B03B1491C521EF8D2204610BDCAB200
:1002C000401E10F8011F8A4202D00029F9D10020F7
:1002D0007047421C10F8011B0029FBD1801A70479F
:1002E00030B504460020034600E05B1C934203D275
:1002F000E05CCD5C401BF8D030BD034611F8012B0B
:1003000000F8012B002AF9D11846704770B506464F
:1003100022F062FF046805460A220021304600F000
:100320006DFA2C6070BD2DE9FE4F804681EA030016
:10033000C00F0C46009021F0004123F00045B8EBBF
:100340000200A94105D24046214690461C460B4674
:10035000024623F00040104347D0270DC7F30A00A0
:10036000C3F30A510290401A019040286BDAC3F39C
:10037000130040F4801B0098924620B10023D2EB7A
:10038000030A63EB0B0B01985946C0F1400250463B
:1003900000F003FA06460D4650465946019A00F011
:1003A0001BFA10EB08006141002487EA115284EA2D
:1003B000E7731A4340D0009A62B3019A012A4FEAC8
:1003C000075215DC001B61EB02014FF0004202EA0C
:1003D0000752CDE90042001C41F5801132462B4600
:1003E00000F08AFA03B0BDE8F08F40462146F9E7F5
:1003F000001B61EB0201001C41F5801300185B41FA
:100400002018A2F5001747EB030140EAD570B61992
:100410006D4111E06D084FEA360645EAC0754FEAB6
:100420000752001B61EB0201001C41F580114908D5
:100430004FEA30000019514132462B4603B0BDE867
:10044000F04F00F04ABA0098012240000023D0EBA0
:10045000020263EBE073009821464FEAE074B8EBC8
:10046000000061EB0401E9E783F000435BE781F002
:10047000004158E72DE9FE4F81EA030404F00044EF
:1004800021F0004100944FF0000B23F0004350EAAC
:1004900001045ED052EA03045BD0C3F30A54C1F3F3
:1004A0000A552C44A4F2F3340194A0FB0254C1F386
:1004B000130141F48011C3F3130343F4801301FBD0
:1004C000024400FB034E840A970A44EA815447EA37
:1004D0008357A4FB076802958D0A05FB07854FEA41
:1004E000932C04FB0C542705029D4FEA065847EA5B
:1004F0001637B5EB08056EEB070C870E920E47EA30
:10050000811742EA8312A7FB0201B6EB0B0164EBF1
:1005100000042B0D43EA0C335E1844EB1C50DA4602
:100520005146E7FB0201C5F313044FEA0B3343EADC
:1005300014534FEA0432019C43EA0603A4F10C046D
:100540000294009CCDE900B400F0D6F903B0BDE8F8
:10055000F08F00200146F9E72DE9F04D81EA030410
:1005600004F0004B21F0004514464FF0000A23F040
:10057000004150EA050220D054EA01021DD0C5F323
:100580000A570246C5F31303C1F31300C1F30A5619
:1005900040F4801543F48013A7EB0608101BD646E1
:1005A00008F2FD3873EB050002D308F1010801E001
:1005B00092185B41B8F1000F03DA00200146BDE854
:1005C000F08D00204FF48011064684460EE0171B84
:1005D00073EB050705D3121B63EB050306434CEAD7
:1005E000010C49084FEA300092185B4150EA0107BC
:1005F000EDD152EA030012D082EA040083EA050139
:10060000084305D0101BAB4106D20122002306E0AF
:1006100000224FF0004302E06FF0010253101AEB8A
:1006200006004CEB085110EB0A0041EB0B01BDE852
:10063000F04D00F052B930B5041E71F1000404DB36
:100640004FF00044404264EB0101141E73F10004BA
:1006500005DB1C464FF00043524263EB0403801A53
:10066000994101D3012030BD002030BD30B5041EBA
:1006700071F1000404DB4FF00044404264EB0101DF
:10068000141E73F1000405DB1C464FF00043524278
:1006900063EB0403101A8B4101D3012030BD00200D
:1006A00030BD0EB5C10F80EAE0700844CA070021D2
:1006B00040F233438DE80E000A460B4600F01CF969
:1006C00003B000BD0EB540F2334102910021CDE9E7
:1006D00000110A460B4600F00FF903B000BDC1F34C
:1006E0000A5210B5C1F3130140F2FF3341F48011F7
:1006F0009A4201DA002010BD40F233439A42A2F23E
:10070000334203DC524200F057F810BD904010BD58
:1007100000F0004230F000400AD0C10D01F56071D8
:10072000C0F3160042EA0151C20840071143704766
:1007300000200146704701F0004330B421F0004131
:1007400050EA010206D00A0DA2F56072C1F313014E
:10075000002A02DC30BC00207047440F44EAC10488
:10076000C100E01830BC00EBC25000F07FB830B5DB
:100770000B46014600202022012409E021FA02F55F
:100780009D4205D303FA02F5491B04FA02F52844F9
:10079000151EA2F10102F1DC30BD202A04DB203A53
:1007A00000FA02F1002070479140C2F1200320FAC4
:1007B00003F3194390407047202A04DB203A21FAC2
:1007C00002F00021704721FA02F3D040C2F120026A
:1007D0009140084319467047202A06DBCB17203A80
:1007E00041FA02F043EAE07306E041FA02F3D04036
:1007F000C2F1200291400843194670472DE9F047A5
:1008000091460F4680460446002614F8015B2DB140
:1008100000F0C6F90068405DC007F6D12B2D02D06C
:100820002D2D18D0641E4A463946204600F0BCF9EA
:1008300027B13968A14201D1C7F8008071054FF096
:1008400002040BD54042002803DD22F0C5FC046001
:10085000A007BDE8F08746F48066E4E70028F8DAF0
:1008600022F0BAFC04606FF00040F2E70029A8BF54
:100870007047401C490008BF20F00100704710B4C9
:10088000B0FA80FC00FA0CF050EA010404BF10BC7E
:10089000704749B1CCF1200421FA04F411FA0CF1AB
:1008A00018BF012121430843A3EB0C01CB1D4FEAE4
:1008B00000614FEA102042BF002010BC704700EBDF
:1008C000C35010440029A4BF10BC7047401C49000D
:1008D00008BF20F0010010BC704710B5141E73F162
:1008E000000408DA401C41F1000192185B411A43F0
:1008F00001D120F0010010BD2DE9F04D92469B463C
:1009000011B1B1FA81F202E0B0FA80F220329046E1
:10091000FFF743FF04460F4640EA0A0041EA0B0195
:1009200053465A46084313D0114653EA010019D0E2
:10093000C8F140025046FFF73FFF05460E465046BD
:1009400059464246FFF729FF084305D0012004E03D
:1009500020463946BDE8F08D0020054346EAE076A2
:100960002C4337430A986305E40AA0EB08000022F1
:10097000FD0A44EA47540A3002D500200146E9E75F
:10098000010510196941DDE9084500196941BDE813
:10099000F04DA2E770B521F0004303430CD0C1F342
:1009A0000A550024D5EB040564EB0403D617AD1AF1
:1009B000B34102DB0020014670BD201841EB02511B
:1009C00070BD2DE9F04D00231A461B1A8A4103DB46
:1009D00000200146BDE8F08DC1F30A52C1F31301B6
:1009E00041F480154FF0000BD10702D100186D4182
:1009F000521E0027044640F2FF11384601EB620AFE
:100A00003E468046024600204FF48011FFF7D4FE98
:100A1000C2197141BB1846EB0100B4EB030C75EB36
:100A2000000C04D3E41A65EB000517460E462419A2
:100A300008F101006D4180463428E3DDF91946EBE9
:100A40000600091BA84103D24FF0FF32134601E014
:100A5000002213461BEB070046EB0A51BDE8F04DA0
:100A6000FFF73BBF2DE9F041054621F000400C4661
:100A7000284309D0C4F30A5040F23341884205DDCF
:100A800028462146BDE8F0812846FBE740F2FE31CA
:100A9000884210DC0CDB4FEA043040EA155050EA83
:100AA000053105D0104804F0004101430020E9E77A
:100AB00000200146E6E7A0F233404642C6F140027C
:100AC00028462146FFF769FE074688462846214604
:100AD0003246FFF771FE43463A46FFF7FEFE3246C6
:100AE000BDE8F041FFF759BE0000F03FC1F30A52E4
:100AF000C1F3130140F2FF3341F480119A4202DA4C
:100B000000200146704740F233439A42A2F233423A
:100B100002DC5242FFF750BEFFF73FBE30B5041E65
:100B200071F1000404DB4FF00044404264EB01012A
:100B3000141E73F1000405DB1C464FF000435242C3
:100B400063EB04038B4208BF824230BD30B5041E04
:100B500071F1000404DB4FF00044404264EB0101FA
:100B6000141E73F1000405DB1C464FF00043524293
:100B700063EB0403994208BF904230BD064C074D19
:100B800006E0E06840F0010394E80700984710345D
:100B9000AC42F6D3FFF7FCFA78C40208B8C40208E6
:100BA00000487047EC5802082DE9F05F8246007853
:100BB000002715468B460AF10104B946302801D0BA
:100BC0009DB113E014F8010B0127782803D05828B1
:100BD00001D045B10AE00DB1102D07D10027102535
:100BE00014F8010B02E0082500E00A250026B046B3
:100BF0000EE005FB080005FB06F1012701EB10469E
:100C00001FFA80F8B6F5803F00D3B94614F8010BFF
:100C1000294600F037F80028EBDABBF1000F05D0C9
:100C20000FB1641E00E05446CBF80040B9F1000F4C
:100C300006D022F0D1FA02210160C81EBDE8F09F63
:100C400048EA0640FAE770B5C1F30A5201F00045E0
:100C50000024C1F3130140F2FF3341F480119A42A2
:100C600001DA002070BD40F233439A42A2F23342CF
:100C700003DC5242FFF7A0FD00E090402C43F1D08E
:100C8000404270BD3A2800D2303820F02002412A7C
:100C900001D3A2F13700884201D34FF0FF307047F3
:100CA00070B58C1810F8015B15F0070301D110F82E
:100CB000013B2A1106D110F8012B03E010F8016B5B
:100CC00001F8016B5B1EF9D12B0705D40023521EDE
:100CD0000DD401F8013BFAE710F8013BCB1A921C46
:100CE00003E013F8015B01F8015B521EF9D5A14244
:100CF000D8D3002070BD00000020704710B54FF21F
:100D0000CC540021C2F20004D4F8980201844DF2C0
:100D1000C251C2F20001C161204616F0C1FF204657
:100D200016F09AFF002010BDFEE70000002070477B
:100D300000207047B0B541F658454FF2CC54002220
:100D4000C2F20005C2F20004691C204617F010F838
:100D500005F12101204617F005F80020B0BD000084
:100D60002DE9F04F91B00DF1040A0C4606464021E2
:100D70005046FFF76FFA226850463146FFF793FA64
:100D8000206801383F2838D841F6584B4EF20436D7
:100D90004EF244384FF0000900200025C2F2000B4B
:100DA000C2F20006C2F200081AF8000000B39BF875
:100DB00000703B28F0550FD108EB0700C7F1400148
:100DC0003F2F88BF0021FFF745FA404631463A469B
:100DD000FFF727FA06E000BF781C8BF80000C0B2CE
:100DE000402805D3304640218BF80090FFF732FAB7
:100DF00001352168A8B28142D6D8002011B0BDE8E3
:100E0000F08F0000B0B541F6FC550FF640310322DB
:100E1000C2F2000505F12C042046FFF761FA002814
:100E200000F0CD810FF6283120460522FFF758FA51
:100E3000002800F0D5810FF6203120460522FFF76B
:100E40004FFA002800F0DF8142F62D61E86AC0F217
:100E50002E01884200F0EA81A88D2E2800F0F98149
:100E60000FF6FC2120460522FFF73AFA002800F091
:100E7000038242F62D51E86AC0F22E01884200F04A
:100E80000E820FF6E42120460522FFF729FA0028FA
:100E900000F018820FF6D82120460322FFF720FA2F
:100EA000002800F022820FF6CC2120460522FFF711
:100EB00017FA002800F02C8242F62D61E86AC0F291
:100EC0002D01884200F037820FF6B021204605221E
:100ED000FFF706FA002800F041820FF6A82120460D
:100EE0000322FFF7FDF9002800F04B820FF698214E
:100EF00020460322FFF7F4F9002800F0558242F65D
:100F00002D51E86AC0F22D01884200F060820FF690
:100F10007C2120460522FFF7E3F9002800F06A82D1
:100F20000FF6702120460522FFF7DAF9002800F0BD
:100F3000748242F62E51E86AC0F22E01884200F017
:100F40007F8242F62E61E86AC0F22E01884200F0EC
:100F50008A82A88D2D2800F0998242F62E61E86AD7
:100F6000C0F22D01884200F0A4820FF63021204605
:100F70000522FFF7B5F9002800F0AE8242F62E51A7
:100F8000E86AC0F22D01884200F0B9820FF6142100
:100F900020460522FFF7A4F9002800F0C3820FF6CF
:100FA0000C2120460522FFF79BF9002800F0CD8296
:100FB0000FF6002120460522FFF792F9002800F0E5
:100FC000D7820FF6F81120460622FFF789F900288C
:100FD00000F0E1820FF6EC1120460622FFF780F9BF
:100FE000002800F0EB820FF6E41120460622FFF7FE
:100FF00077F9002800F0F5820FF6D8112046062276
:10100000FFF76EF9002800F0FF820FF6D01120469E
:101010000622FFF765F9002800F009830FF6C411D6
:1010200020460622FFF75CF9002800F013830FF634
:10103000BC1120460622FFF753F9002800F01D835B
:101040000FF6B01120460622FFF74AF9002800F0FB
:1010500027830FF6A81120460622FFF741F9002842
:1010600000F031830FF69C1120460622FFF738F975
:10107000002800F03B830FF6941120460722FFF76B
:101080002FF9002800F045830FF68811204607222B
:10109000FFF726F9002800F04F830FF68011204655
:1010A0000722FFF71DF9002800F059830FF674118D
:1010B00020460722FFF714F9002800F063830FF69B
:1010C0006C1120460722FFF70BF9002800F06D8312
:1010D0000FF6601120460722FFF702F9002800F002
:1010E00077830FF6581120460722FFF7F9F80028FA
:1010F00000F081830FF64C1120460622FFF7F0F82E
:10110000002800F08B830FF6441120460622FFF7DB
:10111000E7F8002800F095834AF6C16120460722CF
:10112000C0F60201FFF7DCF8002800F09D834AF6C4
:10113000E36120460622C0F60201FFF7D1F800283D
:1011400000F0A5834AF6CF6120460822C0F60201CE
:10115000FFF7C6F8002800F0AD834AF6C8612046C4
:101160000722C0F60201FFF7BBF8002800F0B583A4
:101170004AF6D76120460622C0F60201FFF7B0F812
:10118000002800F0BD834AF6DD6120460622C0F645
:101190000201FFF7A5F8002818BFB0BD41F22000FA
:1011A000C2F2000000F108042046FFF792F80F2871
:1011B00003D32046012121F0C9F97E25B4E341F291
:1011C0002000C2F2000000F108042046FFF781F879
:1011D0000F2816D32046012121F0B8F94125A3E3B9
:1011E00041F22000C2F2000000F108042046FFF79F
:1011F00070F80F2818D32046012121F0A7F94225C5
:1012000092E3412590E341F22000C2F2000000F198
:1012100008042046FFF75DF80F2818D32046012167
:1012200021F094F943257FE342257DE341F220003C
:10123000C2F2000000F108042046FFF74AF80F2828
:1012400018D32046012121F081F944256CE3432580
:101250006AE341F22000C2F2000000F108042046D7
:10126000FFF737F80F2818D32046012121F06EF937
:10127000452559E3442557E341F22000C2F200001E
:1012800000F108042046FFF724F80F2818D3204661
:10129000012121F05BF9462546E3452544E341F26F
:1012A0002000C2F2000000F108042046FFF711F808
:1012B0000F2818D32046012121F048F9472533E3B0
:1012C000462531E341F22000C2F2000000F108049B
:1012D0002046FEF7FEFF0F2818D32046012121F0FB
:1012E00035F9482520E347251EE341F22000C2F2EC
:1012F000000000F108042046FEF7EBFF0F2818D38A
:101300002046012121F022F949250DE348250BE370
:1013100041F22000C2F2000000F108042046FEF76E
:10132000D8FF0F2818D32046012121F00FF94A25B4
:10133000FAE24925F8E241F22000C2F2000000F191
:1013400008042046FEF7C5FF0F2818D320460121C8
:1013500021F0FCF84B25E7E24A25E5E241F22000C6
:10136000C2F2000000F108042046FEF7B2FF0F2889
:1013700018D32046012121F0E9F84C25D4E24B2571
:10138000D2E241F22000C2F2000000F1080420463F
:10139000FEF79FFF0F2818D32046012121F0D6F831
:1013A0004D25C1E24C25BFE241F22000C2F200000F
:1013B00000F108042046FEF78CFF0F2818D32046C2
:1013C000012121F0C3F84E25AEE24D25ACE241F2F9
:1013D0002000C2F2000000F108042046FEF779FF69
:1013E0000F2818D32046012121F0B0F84F259BE2A9
:1013F0004E2599E241F22000C2F2000000F10804FB
:101400002046FEF766FF0F2818D32046012121F061
:101410009DF8502588E24F2586E241F22000C2F275
:10142000000000F108042046FEF753FF0F2818D3F0
:101430002046012121F08AF8512575E2502573E2FA
:1014400041F22000C2F2000000F108042046FEF73D
:1014500040FF0F2818D32046012121F077F85225AC
:1014600062E2512560E241F22000C2F2000000F188
:1014700008042046FEF72DFF0F2818D3204601212F
:1014800021F064F853254FE252254DE241F220004D
:10149000C2F2000000F108042046FEF71AFF0F28F0
:1014A00018D32046012121F051F854253CE2532560
:1014B0003AE241F22000C2F2000000F108042046A6
:1014C000FEF707FF0F2818D32046012121F03EF830
:1014D000552529E2542527E241F22000C2F20000FE
:1014E00000F108042046FEF7F4FE0F2818D320462A
:1014F000012121F02BF8562516E2552514E241F280
:101500002000C2F2000000F108042046FEF7E1FED0
:101510000F2818D32046012121F018F8572503E29F
:10152000562501E241F22000C2F2000000F1080459
:101530002046FEF7CEFE0F2818D32046012121F0C9
:1015400005F85825F0E15725EEE141F22000C2F2FE
:10155000000000F108042046FEF7BBFE0F2818D358
:101560002046012120F0F2FF5925DDE15825DBE17D
:1015700041F22000C2F2000000F108042046FEF70C
:10158000A8FE0F2818D32046012120F0DFFF5A259E
:10159000CAE15925C8E141F22000C2F2000000F181
:1015A00008042046FEF795FE0F2818D32046012197
:1015B00020F0CCFF3125B7E15A25B5E141F22000FA
:1015C000C2F2000000F108042046FEF782FE0F2858
:1015D00018D32046012120F0B9FF3225A4E131259E
:1015E000A2E141F22000C2F2000000F1080420460E
:1015F000FEF76FFE0F2818D32046012120F0A6FF2A
:10160000332591E132258FE141F22000C2F2000042
:1016100000F108042046FEF75CFE0F2818D3204690
:10162000012120F093FF34257EE133257CE141F256
:101630002000C2F2000000F108042046FEF749FE37
:101640000F2818D32046012120F080FF35256BE1BB
:10165000342569E141F22000C2F2000000F10804E3
:101660002046FEF736FE0F2818D32046012120F031
:101670006DFF362558E1352556E141F22000C2F2D2
:10168000000000F108042046FEF723FE0F2818D3BF
:101690002046012120F05AFF372545E1362543E158
:1016A00041F22000C2F2000000F108042046FEF7DB
:1016B00010FE0F2818D32046012120F047FF3825BF
:1016C00032E1372530E141F22000C2F2000000F1A2
:1016D00008042046FEF7FDFD0F2818D320460121FF
:1016E00020F034FF39251FE138251DE141F22000AB
:1016F000C2F2000000F108042046FEF7EAFD0F28C0
:1017000018D32046012120F021FF30250CE1392596
:101710000AE141F22000C2F2000000F10804204674
:10172000FEF7D7FD0F2818D32046012120F00EFF29
:101730003F25F9E03025F7E041F22000C2F2000039
:1017400000F108042046FEF7C4FD0F2818D32046F8
:10175000012120F0FBFE2E25E6E03F25E4E041F2EA
:101760002000C2F2000000F108042046FEF7B1FD9F
:101770000F2818D32046012120F0E8FE2C25D3E0C5
:101780002E25D1E041F22000C2F2000000F1080451
:101790002046FEF79EFD0F2818D32046012120F099
:1017A000D5FE2125C0E02C25BEE041F22000C2F28A
:1017B000000000F108042046FEF78BFD0F2818D327
:1017C0002046012120F0C2FE4025ADE02125ABE0FE
:1017D00041F22000C2F2000000F108042046FEF7AA
:1017E00078FD0F2818D32046012120F0AFFE3A25BE
:1017F0009AE0402598E041F22000C2F2000000F19A
:1018000008042046FEF765FD0F2818D32046012165
:1018100020F09CFE2D2587E03A2585E041F220004E
:10182000C2F2000000F108042046FEF752FD0F2826
:1018300018D32046012120F089FE2F2574E02D25A4
:1018400072E041F22000C2F2000000F108042046DC
:10185000FEF73FFD0F2818D32046012120F076FE29
:10186000282561E02F255FE041F22000C2F2000050
:1018700000F108042046FEF72CFD0F2818D320465F
:10188000012120F063FE29254EE028254CE041F29D
:101890002000C2F2000000F108042046FEF719FD06
:1018A0000F2818D32046012120F050FE5F253BE091
:1018B000292539E041F22000C2F2000000F10804BD
:1018C0002046FEF706FD0F2818D32046012120F000
:1018D0003DFE242528E05F2526E041F22000C2F2EB
:1018E000000000F108042046FEF7F3FC0F2818D38F
:1018F0002046012120F02AFE3E2515E0242513E094
:1019000041F22000C2F2000000F108042046FEF778
:10191000E0FC0F2807D32046012120F017FE3C25CC
:1019200002E03E2500E03C2541F22000C2F200002A
:1019300000F108042046FEF7CCFC255241F6DA609F
:101940000121C2F20000C171B0BD00BF2E2D000008
:101950002D2E2E2E000000002D2E2D2E000000001A
:101960002E2E2D2E000000002E2E2E2E0000000008
:101970002E2E00002E2D2D2D000000002E2D2E2E9F
:10198000000000002D2D00002D2E00002E2D2D2EEC
:10199000000000002D2D2E2D000000002E2E2E2DDB
:1019A000000000002D2E2E2D000000002D2E2D2DCC
:1019B000000000002D2D2E2E000000002E2D2D2DBC
:1019C0002D0000002E2E2D2D2D0000002E2E2E2D50
:1019D0002D0000002E2E2E2E2D0000002E2E2E2E3D
:1019E0002E0000002D2E2E2E2E0000002D2D2E2E2E
:1019F0002E0000002D2D2D2E2E0000002D2D2D2D22
:101A00002E0000002D2D2D2D2D0000002E2E2D2D11
:101A10002E2E00002E2D2E2D2E2D00002D2D2E2EA3
:101A20002D2D00002D2E2D2E2D2D00002E2D2D2E96
:101A30002D2E00002D2D2D2E2E2E00002D2E2E2E83
:101A40002E2D00002D2E2E2D2E0000002D2E2D2DA2
:101A50002E00000080B52DED028B9FED0A8AB0EEBE
:101A6000480A1BF06FFDB0EE480A1AF077FA41F60B
:101A7000FC5030EE000AC2F2000080ED020ABDEC1C
:101A8000028B80BD920A063D2DE9F04381B02DED19
:101A9000028B41F6FC560021C2F2000696ED020AC6
:101AA00096ED032A96ED041A421820EE027A603170
:101AB00092ED003A37EE411A92ED014A92ED025A48
:101AC00092ED036AB1F5407F31EE031A20EE013A40
:101AD00033EE422A32EE042A20EE023A33EE411A65
:101AE00031EE051A20EE013A33EE422A92ED043A25
:101AF00032EE062A20EE024A34EE411A31EE031A83
:101B000092ED053A20EE014A34EE422A92ED064A61
:101B100032EE032A20EE023A33EE411A92ED073AF2
:101B200031EE041A20EE014A34EE422A92ED084AC0
:101B300032EE032A20EE023A33EE411A92ED093AD0
:101B400031EE041A20EE014A34EE422A92ED0A4A9E
:101B500032EE032A20EE023A33EE411A92ED0B3AAE
:101B600031EE041A20EE014A34EE422A92ED0C4A7C
:101B700032EE032A20EE023A33EE411A92ED0D3A8C
:101B800031EE041A20EE014A34EE422A92ED0E4A5A
:101B900032EE032A20EE023A33EE411A92ED0F3A6A
:101BA00031EE041A20EE014A34EE422A92ED104A38
:101BB00032EE032A20EE023A33EE411A92ED113A48
:101BC00031EE041A20EE014A34EE422A92ED124A16
:101BD00032EE032A20EE023A33EE411A92ED133A26
:101BE00031EE041A20EE014A34EE422A92ED144AF4
:101BF00032EE032A20EE023A33EE411A92ED153A04
:101C000031EE041A20EE014A34EE422A92ED164AD1
:101C100032EE032A20EE023A33EE411A92ED173AE1
:101C200031EE041A20EE014A34EE422A32EE032A43
:101C30007FF43AAF22EE013A21EE014A22EE025A37
:101C400086ED032A86ED041A23EE000A35EE043AE7
:101C500033EE400A10EE100AFEF75AFD41EC100B6D
:101C600022F0CAFA51EC100BFEF765FD41F2200498
:101C700000EE100A0021C2F2000494ED002A94ED57
:101C8000011AC6E90311B4EEC02AF1EE10FA09DA1E
:101C90009FEDA13A30EE414A84EE033A31EE031A49
:101CA00084ED011A9FED9D3A30EE424A84EE033AEC
:101CB00032EE032A9FED9A3AB4EEC02AF1EE10FA02
:101CC000C8BFB0EE402A31EE421A84ED002A21EE60
:101CD000031A32EE011AB4EEC01AF1EE10FAB8BFD0
:101CE000012131707078814202D004F0B7FD70613B
:101CF00004F0B4FD7169401A07287CD33178B078BC
:101D000081421CBFB1700846F178884200F09B8088
:101D1000002875D004F0A2FDB06104F09FFDF169C8
:101D2000401A3062B07800286AD00120F1788842E9
:101D300000F08E8000210028317100F0A580F0882D
:101D4000B7EE002A9FED770AB7EE084AB1EE045AC3
:101D5000F088F18896ED081A96ED0A3A1E2888BF99
:101D6000B0EE402A232988BFB0EE442AB8EEC30A59
:101D700022EE058AB8EEC11A32EE022A22EE002ABD
:101D8000B4EEC12AF1EE10FA13DA28EE002AB4EE0E
:101D9000C12AF1EE10FA0CDDFFF734F896ED081ABF
:101DA00096ED0A0A0020B8EEC00AB8EEC11A86F80D
:101DB0002C0028EE000AB4EEC10AF1EE10FA47DC5E
:101DC000FFF720F80020083486F82C002046FEF7A4
:101DD00080FA0F2803D32046012120F0B7FB2046CC
:101DE000FEF777FA2021215241F6DA600121C2F292
:101DF0000000C1712CE0B078F178884288D122E0EF
:101E000004F02CFDF06104F029FDB36AB169401AB9
:101E10005A00002B706202D09042194608DA45F24F
:101E200056571118C5F2555751FB07F101EBD17107
:101E300001EB81071BB1904201DBB84203DDB842E0
:101E4000C8BF0144B162B078F17888427FF472AFC4
:101E500004F004FDF169726A401A02EB4201B0EB32
:101E6000410F08D9307930B9FEF7CCFF012030712D
:101E7000002086F82C003078B1787070F170BDECDD
:101E8000028B01B0BDE8F083D6E909454FEA450968
:101E9000B4EB450F1BDA2846FEF703FC9FED1C0B45
:101EA00053EC102BFEF7E6FA804620460F46FEF76D
:101EB000F8FB02460B4640463946FEF7D7FB30B9E1
:101EC00006F12C073846FEF704FA2E2139524C450C
:101ED000BEDD05EB450040008442B9DA06F12C0571
:101EE0002846FEF7F6F92D21295245F256504FF4B7
:101EF0009661C5F2555054FB00F000EBD07091FB99
:101F0000F0F0F188084400EBD0704008F0809FE7C3
:101F1000333333333333E33F0000C84200007A44A5
:101F2000CDCC4C3F9A99993F4CF6A441C2F20001A6
:101F30004A7801F10C00002A08BF081D7047000014
:101F4000222809D1887841F6C731C2F20001013850
:101F5000B0FA80F0400908700020704700207047F8
:101F6000B0B541F69A454FF2CC540022C2F20005BA
:101F7000C2F20004291D204615F08EFF05F10C0168
:101F8000204615F083FF0020B0BD000010B54FF2D1
:101F9000CC540146C2F20004204615F077FF2046DB
:101FA00015F05EFF002010BDF0B54A1E4FF0000E88
:101FB000BEEB522F18BFF0BD41F69A4C4EF2B4342E
:101FC0000025C2F2000CC2F20004BCF80030BCF8DC
:101FD000022000BF465D9FB20133E6559EB2964295
:101FE0000AD0BEEB562F05F1010518BF00238D4224
:101FF000F0D3ACF80030F0BD1346ACF80030F0BDC3
:10200000F0B581B041F69A45C2F200056E882F887E
:10201000B74202BF012001B0F0BD4FF2CC50C2F276
:102020000000D0F89042606A002840F08580B742F6
:102030002BD20020B0EB562F4FD14EF2B430C2F26B
:1020400000008119A6F5007010F1080F98BF6FF01D
:102050000700424240F2B870C2F20100FEF7E1F818
:10206000002031463218B2F5FF7F40D85308FE2BCE
:1020700048D8B2F5FE7F4DD80431042852D0043040
:102080003218B2F5007FEDD34DE02CD94EF2B430CA
:10209000C2F200008119F01B10F1080F98BF6FF019
:1020A0000700424240F2B870C2F20100FEF7B9F8F0
:1020B000032031463218931EBB4220D2531EBB422E
:1020C0003DD2BA423ED2043107283DD00430321806
:1020D000033ABA42EED303382BE0314689B2B1F568
:1020E000007F25D026E00020616A29BB31E0013065
:1020F0000131698089B2B1F5007F19D01AE0023848
:10210000013116E002300231698089B2B1F5007FF9
:102110000ED00FE003300331698089B2B1F5007F42
:1021200006D007E00820698089B2B1F5007F01D1AF
:1021300000216980616A61B1002001B0F0BD013801
:102140000231F6E70331F4E769800820616A00296B
:10215000F2D14FF2CC5440F2B87182B2C2F2000414
:10216000C2F20101204615F097FE204615F09AFEB6
:10217000002001B0F0BD00004FF6C000C2F2000028
:1021800003F0E6BC4FF66030C2F2000003F0E0BCA2
:102190004FF62010C2F2000003F0DABC4FF68010B8
:1021A000C2F2000003F0D4BC4FF6C030C2F200000F
:1021B00003F0CEBC4FF6E010C2F2000003F0C8BC42
:1021C00080B54FF6A020C2F2000003F0C1FCBDE8CC
:1021D000804001F051BA00007047000070B52DED4D
:1021E000028B82B00546002001AA6B460C46CDE961
:1021F000000028461AF0E8FD9DED010AB5EE400A00
:10220000F1EE10FA06D141F26F209FED6D0AC3F690
:102210008320019041F664769FED6A1A41F20C002A
:10222000C2F20006C2F2000096ED002A81EE001A0A
:10223000B4EEC21AF1EE10FA0FDD90ED003A31EE75
:10224000424AB7EE005A84EE033AB4EEC53AF1EED4
:1022500010FAC8BFB0EE453A05E090ED013A31EE14
:10226000424A84EE033A32EE032A9FED583A4CF686
:10227000A4409FED558AB5EEC02AC2F20000F1EEEF
:1022800010FAB8BFB0EE482A20EE020AB4EEC30A34
:10229000F1EE10FAC8BFB0EE412A007D86ED002AAB
:1022A00040B114F0BDFD052804D014F0B9FD062896
:1022B00040F083804FF07E50B7EE000A306041F26C
:1022C0000C00C2F2000090ED021AB4EE401AF1EEDA
:1022D00010FA0FD0B4EEC01AF1EE10FA13DCB4EE1F
:1022E000C01AF1EE10FA1BDB012C23DA02B0BDECB0
:1022F000028B70BD2846294622461BF0EBF802B03F
:10230000BDEC028B70BD03EE104A30EE412AB8EEF0
:10231000C33A82EE038AB4EEC01AF1EE10FAE3DAA1
:1023200002EE104A30EE410AB8EEC22A80EE028A6E
:10233000012CDBDB0022002105EB820238EE011AC2
:1023400092ED000A21EE000A82ED000A41F001023E
:1023500092B2A2422BDA05EB820238EE011A92ED1C
:10236000000A21EE000A82ED000A41F0020292B258
:10237000A2421CDA05EB820238EE011A92ED000A45
:1023800021EE000A82ED000A41F0030292B2A2425D
:102390000DDA05EB820238EE011A043192ED000AE3
:1023A00021EE000A82ED000A8AB2A242C4DB80ED6F
:1023B000021A02B0BDEC028B70BD96ED000A7EE7FA
:1023C0006F12833A00C0DA450000000000401C464E
:1023D00080B541F200002021C4F2020004F006FAA8
:1023E00041F64031C2F20001087080BD70B586B080
:1023F000044641F6B460C2F20000007828B141F60C
:10240000B260C2F200000078E8B141F6B365C2F2F2
:102410000005287818B1287800283FD1AEE04CF6A6
:10242000A440C2F20000017F032912D0022919D072
:1024300001292AD190F8216014F0ECFCFEB164214E
:1024400004FB01001FE060B206B0BDE870401BF065
:10245000E1BB43F6095004FB00F614F0DBFC00EB93
:10246000861010E090F8216014F0D4FC002E0CBF10
:102470004FF47A7142F2107104FB010003E004EBA7
:10248000840100EB410014F083FD41F6DA60012184
:10249000C2F20000C170287800286FD041F6B26007
:1024A000C2F200000078002847D042F60000C4F2D3
:1024B000000002684FF48020059000200490CDE9D0
:1024C000020040208DF80700C2F3021102F00F0055
:1024D00001EB810100EB41008DF80600C2F30321FE
:1024E000C2F3023303EB830301EB43018DF80510C4
:1024F000C2F30343C2F3015242EA820203EB4202F7
:1025000041F6B1638DF80420C2F200031E788EB349
:102510001E78012E3AD1B4F1FF3F00DC71B32144A3
:102520008DF805101B78022B33D1B4F1FF3F00DC8E
:1025300020B320448DF806002BE041F25400C2F293
:10254000000000780238042800F29B80DFE800F0E9
:10255000034A5B6C7D004CF6A440C2F20000817F10
:1025600021440A0608BF0121CAB2642A28BF642197
:10257000817780E0B4F1FF3F02DC0AB906B070BD9C
:1025800022448DF804201E78012EC4D01B78022B23
:10259000CBD0D2B2C9B241F6C044C0B2182A24BFCF
:1025A00000228DF80420C2F200043C2924BF00213F
:1025B0008DF805103C2824BF00208DF80600204629
:1025C00006F036FD204606F0A7FD01A920460022B0
:1025D00006F0A0FE41F6DA600121C2F2000081712E
:1025E00006B070BD4CF6A440002CC2F20000C17EC3
:1025F00000DCE1B321440A06C17638D0C9B205290E
:1026000037D3042134E04CF6A440C2F2000090F825
:10261000281021440A0608BF0121CAB2642A28BF33
:10262000642180F8281026E04CF6A440002CC2F269
:10263000000090F8291000DCE9B12144CAB20A2A4E
:1026400028BF0A2180F8291015E04CF6A440C2F2F8
:10265000000090F82A1021440A0608BF0121CAB2DE
:10266000FA2A28BF6FF0050180F82A1003E0012143
:10267000C17609F065FE41F6DA600121C2F2000080
:10268000417041F6A4600121C2F20000017006B061
:1026900070BD0000B0B541F200042021C4F2020474
:1026A000204604F0A3F841F64035C2F200056870F8
:1026B0002978884224D028702046042104F096F816
:1026C0006A786968904210D1481C68604CF6A44052
:1026D000C2F2000090F8B4008142B8BFB0BD012042
:1026E000FFF784FE00206860B0BD481E68604CF6AD
:1026F000A440C2F2000090F8B4004042814200DDE4
:10270000B0BD4FF0FF30FFF771FE00206860B0BD34
:1027100010B54FF4806003F0DFFE41F64834C2F29A
:1027200000042078002808BF01F05EFC2078002813
:1027300018BF10BDBDE8104001F072BE80B5042086
:1027400003F0CAFE41F6CB300021C2F20000017056
:102750004CF6B450C2F200000078002814BFBDE867
:10276000804080BDFFF796BF80B5102003F0B4FE17
:1027700041F6CB300021C2F2000001704CF6B4509B
:10278000C2F200000078002808BF80BD14F048FBAA
:10279000072800D180BDBDE8804014F0B9BB00001F
:1027A00080B5202003F098FE41F6CB300021C2F224
:1027B0000000017041F62C50C2F2000000780028A1
:1027C00018BF80BDBDE880400CF074BFFEE700007C
:1027D0002DE9F0412DED0A8B82B041F63C689FED6A
:1027E000519A1E2641F6E257B0EE088AB8EE08AAC2
:1027F000B2EE0BBAB2EE0ECAC2F2000808F12C0516
:10280000F0B2022E00EE100AB8EE400A0CD800EE2C
:10281000107A00210020B8EEC00A80EE080ABDEE52
:10282000C00A10EE102A1DE00E2E0DD830EE0A0A56
:1028300020EE090A80EE0B0ABDEEC00A10EE101A57
:10284000CA4308460EE000BF3CEE400AFF200022CB
:1028500020EE090A80EE0C0A30EE090ABDEEC00A2D
:1028600010EE101AD2B21FF00FFE25F8020BFF3F38
:10287000013EC5D14CF6A445C2F2000595F86000B2
:10288000022849D34AF2203741F238044FF400714C
:102890004FF40076C0F60207C2F2000457F8200099
:1028A000E060A068FDF7D6FC95F860004FF4007179
:1028B00057F82000A0616069FDF7CCFC4EF2B450DF
:1028C00095F8602045F6F854C2F20000C0F6020404
:1028D000CDE9000602EB420004EB8000418843682A
:1028E00008F1140019F098FD4EF6C05095F86020DC
:1028F000C2F20000CDE9000602EB420004EB8000CA
:102900004188436808F1200019F086FD95F86000C1
:10291000B6FBF0F0A8F8040002B0BDEC0A8BBDE8ED
:10292000F08100BF00007F432DE9F04F81B02DED15
:10293000088B8AB04CF6A445C2F2000595F86700F2
:10294000002800F0E78241F23804C2F20004207847
:10295000002800F0DF8241F63C66C2F200063078C3
:10296000002840F0D78244F2687800204FF40071CC
:102970000422C2F20008CDE9080040461AF0B4FE75
:1029800044F668794FF400710522C2F20009484606
:102990001AF0AAFE95F86200C8B144F2687141F6D7
:1029A00098104FF40073C2F20001C2F200000A4610
:1029B00018F0E8FC44F6687141F6A4104FF4007377
:1029C000C2F20001C2F200000A4618F0DBFC95F8E2
:1029D0006000012840F2F580201D414642464FF438
:1029E000007318F00BFC04F1100049464A464FF4FE
:1029F000007318F003FC06F11400414642464FF400
:102A0000007319F019FB06F1200049464A464FF4BD
:102A1000007319F011FBB0880022072709EB800131
:102A200043F268794FEAC00EC0F5007BA1F5FF6A5A
:102A300008EB8001C2F20009A1F5006C45F2687153
:102A4000C2F2000101F11C035A450FDA03EB0E003C
:102A50001D461C46A7F1060850F81C1C45F81C1D15
:102A600050F8180C44F8180DF81F11E0DCF80000BD
:102A70005AF8081C43E9070145F26870C2F20000E9
:102A8000014600EBC205500000F1010801EB88048B
:102A90002968551C5D4549F82010206849F8280030
:102AA00018DA03EB0E0142F0010051F8144C43F820
:102AB000144C51F8101C43F8101C45F26871C2F216
:102AC00000010E4601EBC0044100481C06EB8006E5
:102AD0000CE000BFDCF804001C461E46791F44F8D9
:102AE000140D5AF8040C46F8100D381F24680135EF
:102AF0005D4549F82140316849F8201018DA03EBA8
:102B00000E0142F0020051F80C4C43F80C4C51F805
:102B1000081C43F8081C45F26871C2F2000188469F
:102B200001EBC00441004E1C08EB86000CE000BF26
:102B3000DCF808001C46DAF80010BE1E44F80C0D44
:102B4000184640F8081DF91E2468013500685D45E7
:102B500049F8214049F8260016DA03EB0E0142F04D
:102B6000030051F8041C43F8041C53F80E101960BC
:102B700045F26871C2F2000101EBC00240000C4650
:102B8000411C04EB81040AE0DCF80C001A461C46E8
:102B9000394642F8040DDAF804001860781E12680D
:102BA0000AF1100A0CF1100C0837203349F82020E4
:102BB00020686A1CB2F5007F49F821007FF444AF19
:102BC0004FE043F268700022C2F2000000F13C01C5
:102BD00059F8020058F8023008EB020609EB020C23
:102BE000039043F2687041F83C3C4B46C2F200004F
:102BF00000EB4207D6E901A02032B2F5006F019048
:102C0000F06802903069049070690590B069069090
:102C1000F06907904046DCF80480DCE9029E0CF184
:102C2000100C9CE87010DDF80CB0C7E901BAC7F8C9
:102C30000C8080460198C7E9040999460298C7E9C3
:102C4000060E0498C7E908040598C7E90A0506981E
:102C5000C7E90C060798B863C1F800C001F140014C
:102C6000B6D143F2687441F63C679FEDC18A9FED8F
:102C7000C19A9FEDC1AA9FEDC1BA01200026C2F200
:102C80000004C2F20007251D387000BFB0B200EE8C
:102C9000100AB8EE400A20EE080A80EE090A19F080
:102CA0005DF920EE0A0A15ED011A95ED002A0136AC
:102CB00030EE0B0AB6F5007F21EE001A20EE020A74
:102CC00005ED011A85ED000A05F10805DED149F68A
:102CD000E4202146002201230025C0F6020018F05E
:102CE00027FD204621464FF4007219F073F8B6EE26
:102CF000000A0020211862194030203591ED001A99
:102D000091ED012AB0F5006F31EE021A21EE001AA2
:102D100082ED001A91ED021A91ED032A31EE021AAA
:102D200021EE001A82ED011A91ED041A91ED052AA7
:102D300031EE021A21EE001A82ED021A91ED061A06
:102D400091ED072A31EE021A21EE001A82ED031AE4
:102D500091ED081A91ED092A31EE021A21EE001ABE
:102D600082ED041A91ED0A1A91ED0B2A31EE021A46
:102D700021EE001A82ED051A91ED0C1A91ED0D2A43
:102D800031EE021A21EE001A82ED061A91ED0E1AAA
:102D900091ED0F2A31EE021A21EE001A82ED071A88
:102DA000A8D1606808AA09AB4FF480712060204662
:102DB0001AF00AF897ED030A9DED081AF888B2EEAA
:102DC000042A31EE401A062881EE021A04D3B5EE29
:102DD000C01AF1EE10FA16DCB5EEC01A002100227E
:102DE000BAEE043AF1EE10FAB8BF0122B4EEC31AFB
:102DF000022838BF01211140F1EE10FA80F29080D4
:102E0000002900F08D8041F23805B0EE413AC2F25F
:102E1000000530EE030A87ED030A9FED591A0020E2
:102E2000F880B4EEC10AF1EE10FABEBF0020C4F281
:102E3000C820F86013F0F4FF0B2807D146F2000019
:102E40009FED500AC4F26A70F86001E097ED030A42
:102E5000B7EE001A204621464FF4807281EE000A38
:102E60001AF038FB4CF6A440C2F2000090F8BA10F9
:102E7000002000EE101A46F26871B8EE400AC2F265
:102E8000000100BF0A182318103093ED002A92EDBC
:102E9000001AB4EEC21A32EE412A82EE002AF1EE96
:102EA00010FA31EE021A93ED012A82ED001A92ED2A
:102EB000011AB4EEC21A32EE412A82EE002AF1EE75
:102EC00010FA31EE021A93ED022A82ED011A92ED08
:102ED000021AB4EEC21A32EE412A82EE002AF1EE54
:102EE00010FA31EE021A93ED032A82ED021A92EDE6
:102EF000031AB4EEC21A32EE412AF1EE10FA82EE53
:102F0000002A31EE021AB0F5806F82ED031AB9D1B2
:102F1000002028700AB0BDEC088B01B0BDE8F08F2E
:102F200041F23805B4EEC20AF1EE10FAC2F2000521
:102F300002DD0228FFF46DAFBFEE002A0022B0EEE2
:102F4000413AB4EEC21AF1EE10FAB8BF01220A42B9
:102F50007FF45FAFB7EE001AB4EEC10AF1EE10FADB
:102F60007FF75BAF0128B0EE423A7FF652AF54E7ED
:102F7000DB0FC9400080FF431F85EBBE713D0A3F58
:102F80000000C84200606A472DE9F04F83B04DF65B
:102F9000C75146F2687B40F6BC594FF0000CCAF6A8
:102FA0003A71C2F2000BC2F2010951FB000009F1B3
:102FB0000E05C846C10901EBD0704CF6A441C2F21F
:102FC000000191F8601048430FFA80FA0BF10C00F1
:102FD000019009F106000090BAF1010F029512DA92
:102FE00078E000BF029D0CF1010C08F50078BCF1FF
:102FF000320F05F5007504BF03B0BDE8F08FBAF1DC
:10300000010F029566DB0024BCF1000F00F0D680B2
:103010000AEB040608EB44070834B0B2FF288FBF60
:10302000002009EB4C2031B230F8110025F80E0CCD
:10303000701C81B2FF298FBF002009EB4C2100B228
:1030400031F810007880B01C81B2FF298FBF0020BA
:1030500009EB4C2100B231F81000B880F01C81B2AD
:10306000FF298FBF002009EB4C2100B231F810007E
:10307000F880301D81B2FF298FBF002009EB4C2161
:1030800000B231F810003881701D81B2FF298FBF66
:10309000002009EB4C2100B231F810007881B01DFE
:1030A00081B2FF298FBF002009EB4C2100B231F81B
:1030B0001000B881F01D81B2FF298FBF002009EBFD
:1030C0004C2100B231F8100025F8100BB4F5807FC8
:1030D0009ED187E7BAF1FF3F3FF784AFBCF1000F05
:1030E00000F0C580002400BF0AEB040508EB44068D
:1030F000083C05F1FF0000B20028A6BF09EB4C21F7
:1031000031F810000020A6F8FE0105F1FE0000B223
:103110000028A6BF09EB4C2131F810000020A6F8CA
:10312000FC0105F1FD0000B20028A6BF09EB4C210F
:1031300031F810000020A6F8FA0105F1FC0000B2F9
:103140000028A6BF09EB4C2131F810000020A6F89A
:10315000F80105F1FB0000B20028A6BF09EB4C21E5
:1031600031F810000020A6F8F60105F1FA0000B2CF
:103170000028A6BF09EB4C2131F810000020A6F86A
:10318000F40105F1F90000B20028A6BF09EB4C21BB
:1031900031F810000020A6F8F20105F1F80000B2A5
:1031A0000028A6BF09EB4C2131F810000020A6F83A
:1031B000F00114F5807F97D114E700BFDDE90056D8
:1031C0000AEB040738B23946FF28C8BFA1F5807161
:1031D00009B25BF8211046F80C1CB9B2FF2994BF64
:1031E00039F81000002025F8060C781C02B281B2D4
:1031F000FF2AC8BFA7F1FF0000B2FF295BF820300B
:103200000BEB8400436094BF39F81210002109EBE6
:10321000440204345180B91C0FFA81FE8BB2BEF116
:10322000FF0FC8BFA7F1FE0109B2FF2B5BF8211009
:10323000816007F1030194BF39F81E0000209080DF
:103240008AB208B2FF28C8BFA7F1FD0109B2FF2A60
:103250005BF82110316006F1100694BF39F81000B8
:10326000002025F8080BB4F5807FA9D1BAE6002626
:103270000AEB06070BEB860409EB4605083E07F14F
:10328000FF0108B20028B8BF07F2FF1109B20028F9
:103290005BF82110C4F8FC1307F1FE01ACBF39F84C
:1032A00010000020A5F8FE0108B20028B8BF07F5FD
:1032B000FF7109B200285BF82110C4F8F81307F178
:1032C000FD01ACBF39F810000020A5F8FC0108B2E0
:1032D0000028B8BF07F2FD1109B200285BF82110E1
:1032E000C4F8F41307F1FC01ACBF39F8100000205A
:1032F000A5F8FA0108B20028B8BF07F5FE7109B2B7
:1033000000285BF82110C4F8F01307F1FB01ACBFF3
:1033100039F810000020A5F8F80108B20028B8BF5D
:1033200007F2FB1109B200285BF82110C4F8EC1376
:1033300007F1FA01ACBF39F810000020A5F8F6013A
:1033400008B20028B8BF07F5FD7109B200285BF884
:103350002110C4F8E81307F1F901ACBF39F81000E7
:103360000020A5F8F40108B20028B8BF07F2F9114F
:1033700009B200285BF82110C4F8E41307F1F80142
:10338000ACBF39F810000020A5F8F20108B20028FF
:10339000B8BF07F5FC7109B200285BF82110C4F82A
:1033A000E013ACBF39F81000002016F5807FA5F8B7
:1033B000F0017FF45DAF15E62DE9F0472DED0C8BA4
:1033C000C0B041F6B0604CF6A448C2F20000C2F2B0
:1033D0000008017898F86720002A00F0458141F242
:1033E0003802C2F2000212781143C9B2002940F03B
:1033F0003B8141F6B361C2F200010978002940F037
:10340000338141F6B561C2F200010978002940F02C
:103410002B8141F6B661C2F200010978002940F023
:10342000238101210170FEF77FFD41F63C6A0068AF
:10343000C2F2000ADAF8101088420DD0FEF774FDCF
:10344000DAF810100068401A00B2FFF79DFDFEF791
:103450006BFD0068CAF8100040F6BC594FF6003406
:103460000025C2F20109C2F2000400BF09EB050009
:10347000802300F5C04100F5C442204602F082FFDF
:10348000204600214FF0FF3202F070FEA5F50075D6
:1034900015F5C44FEAD16C464FF480712046FCF715
:1034A000D9FE46F268779FED73AA0026B3EE0E8A26
:1034B000B0EE089AB8EE08BAB2EE0BCAB2EE0EDA67
:1034C000C2F2000797ED000A20EE080ABDEEC00A1E
:1034D00010EE100A1E2809D3BAF806001E25013086
:1034E000AAF806004FF4784036E000BFC5B200EEFF
:1034F000105A022DB8EE400A0ED8C5EB0520002167
:1035000000EE100A0020B8EE400A80EE090ABDEE77
:10351000C00A10EE102A1CE00E2D0CD830EE0B0A5B
:1035200020EE0A0A80EE0C0ABDEEC00A10EE101A58
:10353000CA4308460DE03DEE400AFF20002220EE7F
:103540000A0A80EE0D0A30EE0A0ABDEEC00A10EE3D
:10355000101AD2B21EF098FF86F0800101360437AF
:10356000B6F5807F655429F81100ABD10020A02169
:10357000FF22BE23002509F031FA00BF002600BF5C
:10358000802E09D14FF4FC6009F020FA0136B6F51F
:10359000807FF5D10FE000BFA05DC0F11E00854225
:1035A00086BF0AEB4500808D002009F00FFA013636
:1035B000B6F5807FE4D101351E2DDFD18020BE21FC
:1035C0006FF01D024FF4FC6309F062FD00209E21A4
:1035D0004FF480720023002409F03EFDFEF7A4FCA6
:1035E000C68898F86050FEF79FFC01790A2935D803
:1035F0004DF6C750CAF63A70A6FB0002D009012268
:103600008A40684312F0290F08D112F0520F0ED0F1
:1036100081B28022802928BF104605E081B2802235
:10362000802928BF1046404202B2802011E00122CA
:1036300002FA01F111F4A06F10D081B2B1F5807FD0
:1036400028BF4FF4807002B2802180B2A1EB5000FD
:1036500000B29E214FF4FC6309F0FEFCAAF808407A
:103660008AF8024000F008F840B0BDEC0C8BBDE8D1
:10367000F08700BF00007F4310B54CF6A440C2F2B3
:10368000000090F8660048B113F0CAFB032803D08D
:1036900013F0C6FB042801D1212200E0322241F6BA
:1036A0003C64C2F2000421898A4225D9A27801F142
:1036B000BF00BE3189B283B28AB38120FF2209F0F4
:1036C0008DF940F6BC5120897F23C2F2010101EB44
:1036D000402000F5817141F6A450C2F2000002685A
:1036E0004FF6A020C2F2000002F08AFE0020A07077
:1036F00020890130208110BD8020BE214FF4FC6361
:1037000009F0C6FC41F6B0600021C2F20000017071
:1037100041F238000121C2F20000017010BD00200A
:10372000802209F05BF940F6BC5120898023C2F267
:10373000010101EB402141F6A450C2F200000268F1
:103740004FF6A020C2F2000002F05AFE0120A07045
:1037500010BD000080B541F64831FF200122C2F2C1
:10376000000141F80C0F0320C1E90122C8600020CC
:10377000C4F2020002F0BCFE00F0B2FFBDE88040DF
:1037800000F0CEBE2DE9F04141F648310123002280
:10379000C2F20001C4F2020288680130886040F67B
:1037A0001800C4F2020003600F7997BBCE68F707D8
:1037B0001EBF176827F003071760B70742BF1768D7
:1037C00027F00C071760770742BF176827F030070C
:1037D0001760370742BF176827F0C0071760F70662
:1037E00042BF176827F440771760B70642BF1768D3
:1037F00027F440671760770642BF176827F44057E1
:103800001760370642BF176827F440471760012743
:103810000F7100BF17694FF48036066003603B02EA
:103820000F7997BBCE68F7071EBF176827F003070D
:103830001760B70742BF176827F00C0717607707B4
:1038400042BF176827F030071760370742BF176875
:1038500027F0C0071760F70642BF176827F44077C4
:103860001760B70642BF176827F4406717607706EE
:1038700042BF176827F440571760370642BF1768E2
:1038800027F44047176001270F7100BF176941F601
:103890003C6C4CF6B35EC2F2000CC2F2000EFFB2FA
:1038A0003B431CB29CF8003000EE104A9EF80040EA
:1038B000B8EEC00A94B163B146F6683344F2687456
:1038C000C2F20003C2F200041B6804EB830383ED21
:1038D000000A47F26C13C2F2000311E063B146F62E
:1038E000683344F66874C2F20003C2F200041B6835
:1038F00004EB830383ED000A47F26C73C2F200030A
:10390000CC8803EB8403012483ED000A4FF4803359
:10391000036004600D7995BBCD68EE071EBF166885
:1039200026F003061660AE0742BF166826F00C06A6
:1039300016606E0742BF166826F0300616602E0726
:1039400042BF166826F0C0061660EE0642BF166833
:1039500026F440761660AE0642BF166826F440662E
:1039600016606E0642BF166826F4405616602D0695
:1039700042BF156825F44045156001250D7100BF53
:103980001569036004600C792B0294BBCC68E507D1
:103990001EBF156825F003051560A50742BF156811
:1039A00025F00C051560650742BF156825F0300548
:1039B0001560250742BF156825F0C0051560E506AE
:1039C00042BF156825F440751560A50642BF15680D
:1039D00025F440651560650642BF156825F440551D
:1039E0001560240642BF146824F440441460012486
:1039F0000C7100BF1469E4B223431CB29CF8003080
:103A000000EE104A9EF80040B8EEC00A94B163B1CF
:103A100046F6683344F66874C2F20003C2F200044A
:103A20001B6804EB830383ED000A47F26C73C2F258
:103A3000000311E063B146F6683344F26874C2F2E1
:103A40000003C2F200041B6804EB830383ED000A49
:103A500047F26C13C2F20003CC8803EB8403012409
:103A600083ED000A4FF48033036004600D7995BB49
:103A7000CD68EE071EBF166826F003061660AE0777
:103A800042BF166826F00C0616606E0742BF166825
:103A900026F0300616602E0742BF166826F0C006D4
:103AA0001660EE0642BF166826F440761660AE0633
:103AB00042BF166826F4406616606E0642BF16685E
:103AC00026F4405616602D0642BF156825F4404581
:103AD000156001250D7100BF1569036004600B7945
:103AE0002D0293BBCB68DC071EBF146824F00304CF
:103AF00014609C0742BF146824F00C0414605C0737
:103B000042BF146824F0300414601C0742BF1468DC
:103B100024F0C0041460DC0642BF146824F440742E
:103B200014609C0642BF146824F4406414605C0670
:103B300042BF146824F4405414601B0642BF13684B
:103B400023F44043136001230B7100BF166947F64D
:103B50006C589EF8007048F26C33C2F20008C2F252
:103B60000003F6B2002F474645EA060508BF1F4688
:103B7000CE882DB200EE105A07EB86050126B8EE6E
:103B8000C00A85ED000A4FF48035056006600F79A4
:103B900097BBCF68FC071EBF146824F003041460B1
:103BA000BC0742BF146824F00C0414607C0742BFB9
:103BB000146824F0300414603C0742BF146824F0F9
:103BC000C0041460FC0642BF146824F440741460FE
:103BD000BC0642BF146824F4406414607C0642BFF3
:103BE000146824F4405414603C0642BF146824F462
:103BF0004044146001240C7100BF14690560066024
:103C000025020C7994BBCE68F4071EBF146824F01B
:103C100003041460B40742BF146824F00C04146059
:103C2000740742BF146824F030041460340742BFA4
:103C3000146824F0C0041460F40642BF146824F42D
:103C400040741460B40642BF146824F440641460E5
:103C5000740642BF146824F440541460340642BF12
:103C6000146824F44044146001240C7100BF1269EC
:103C70009EF80070D2B2002F08BF4346CF882A4377
:103C800012B200EE102A03EB8702B8EEC00A82EDF2
:103C9000000A7A1C93B2B3F5C07318BF1346CB80E9
:103CA0009CF8001071B146F66831C2F200010A6852
:103CB00001320A600A68B2F5007F02BF00228CF868
:103CC00000200A604FF480310160BDE8F0810000FF
:103CD00070B540F6180E41F6483201230021C4F2B7
:103CE000020EC2F20002C4F20201CEF800301079D6
:103CF00090BBD068C5071EBF0D6825F003050D6099
:103D0000850742BF0D6825F00C050D60450742BFD1
:103D10000D6825F030050D60050742BF0D6825F0E0
:103D2000C0050D60C50642BF0D6825F440750D60E5
:103D3000850642BF0D6825F440650D60450642BF0B
:103D40000D6825F440550D60000642BF086820F458
:103D5000404008600120107100BF08694CF6A6546D
:103D60004CF6A85CC2F20004C2F2000C00F001059F
:103D7000C0B225704CF6A754C0F34005C2F200044F
:103D80002570C0F380048CF80640C0F3C0048CF8A2
:103D90000440C0F300148CF80240C0F340108CF8CB
:103DA00000004FF48030CEF80000CEF800301379D8
:103DB00093BBD368DC071EBF0C6824F003040C60BF
:103DC0009C0742BF0C6824F00C040C605C0742BFE7
:103DD0000C6824F030040C601C0742BF0C6824F00F
:103DE000C0040C60DC0642BF0C6824F440740C6014
:103DF0009C0642BF0C6824F440640C605C0642BF21
:103E00000C6824F440540C601B0642BF0B6823F47A
:103E100040430B6001231371012300BF0D69CEF8ED
:103E200000004FF47060CEF80030167900EA0514F7
:103E300005F00F0096BBD568EE071EBF0E6826F092
:103E400003060E60AE0742BF0E6826F00C060E6039
:103E50006E0742BF0E6826F030060E602E0742BF86
:103E60000E6826F0C0060E60EE0642BF0E6826F40D
:103E700040760E60AE0642BF0E6826F440660E60C5
:103E80006E0642BF0E6826F440560E602D0642BFF5
:103E90000D6825F440450D600125157100BF0D69C1
:103EA0000002EDB22C434CF6A4552401C2F20005E9
:103EB0002C80B5F90040C4F3C366344424B224090D
:103EC0002C804FF48034CEF80040CEF800301379C7
:103ED00093BBD368DD071EBF0D6825F003050D6099
:103EE0009D0742BF0D6825F00C050D605D0742BFC0
:103EF0000D6825F030050D601D0742BF0D6825F0E7
:103F0000C0050D60DD0642BF0D6825F440750D60EB
:103F10009D0642BF0D6825F440650D605D0642BFF9
:103F20000D6825F440550D601B0642BF0B6823F455
:103F300040430B600123137100BF0B69DBB21843D0
:103F400041F6D233C2F2000318800120CEF80040BF
:103F5000CEF80000107990BBD068C3071EBF0B6875
:103F600023F003030B60830742BF0B6823F00C03AD
:103F70000B60430742BF0B6823F030030B6003075D
:103F800042BF0B6823F0C0030B60C30642BF0B683F
:103F900023F440730B60830642BF0B6823F4406335
:103FA0000B60430642BF0B6823F440530B600006CE
:103FB00042BF086820F4404008600120107100BF33
:103FC000086900F00F01C0B2072988BF40F0F00176
:103FD0008CF80A10C0F300108CF808004FF4803001
:103FE000CEF8000070BD000070B541F648340325DE
:103FF00000260120C2F20004C0F2FF05C4F202064E
:10400000207012F06DFF18B112F00AFF0B281CD1BE
:104010002079013501281BD1E068C10730D1810723
:1040200035D441073AD401073FD4C10644D48106B0
:1040300049D441064ED4000604D53068012161F30D
:104040008F3030600020207102E020790128E3D019
:1040500040F618000221B561C4F20200016001219E
:1040600001604FF44031016012F03AFF18B112F0D4
:10407000D7FE0B2836D1FFF785FB0020207070BDDE
:104080003168012262F3010131608107C9D53168CD
:10409000012262F3830131604107C4D531680122F6
:1040A00062F3051131600107BFD53168012262F367
:1040B00087113160C106BAD53168012262F3092146
:1040C00031608106B5D53168012262F38B21316000
:1040D0004106B0D53168012262F30D31316000062E
:1040E000ABD4AFE700F004F80020207070BD0000F2
:1040F000F0B541F6483E0027C2F2000EC4F20207B6
:10410000DEF808000130CEF8080048F66C70BEF802
:104110000610C2F2000000EB810090ED000ABDEE37
:10412000C00A10EE103A98B24FEA102C9EF8040024
:1041300001281CD1DEF80C00C4076CD1840771D4AF
:10414000440776D404077CD4C40600F18280840638
:1041500000F18780440600F18C80000604D53868A1
:10416000012464F38F30386000208EF804000CF5D1
:104170007F004FF47F4201254FF48034BF29B8619E
:1041800040F6180062F31F23C4F2020005600460C9
:10419000BB6148F66C1305600460C2F2000303EBD8
:1041A000810393ED000ABDEEC00A10EE103A9EB2F4
:1041B00062F31F234FEA162606F57F06BE610560EF
:1041C0000460BB610560046001F10100AEF8060007
:1041D00013D040F27F10814218BFF0BD41F6AA50C3
:1041E000C2F20000017800294CD040F27F10AEF8F6
:1041F000060001208EF80300F0BD41F6AA50C2F27D
:1042000000000178002948D0BF20AEF80600012048
:104210008EF80300F0BD3C68012565F301043C60A5
:1042200084078DD53C68012565F383043C60440711
:1042300088D53C68012565F305143C6004077FF5CB
:1042400083AF3C68012565F387143C60C4067FF5A5
:104250007EAF3C68012565F309243C6084067FF548
:1042600079AF3C68012565F38B243C6044067FF5FB
:1042700074AF3C68012565F30D343C6000063FF5E2
:104280006EAF71E741F280110122C2F200010A70A3
:104290000021AEF806100270F0BD0121017041F25C
:1042A00080100021C2F200000170F0BD70B5FDF772
:1042B0003BFE006819F060FE064612F011FEE8B9F8
:1042C00012F0AEFD04280CD0032817D1FDF72CFE08
:1042D0004CF6A4410068C2F20001B1F8681008442D
:1042E00009E0FDF721FE4CF6A4410068C2F200018E
:1042F000B1F86810401A19F03FFE064612F0F0FDC2
:1043000018B112F08DFD0B2801D1002500E0082521
:1043100012F0E6FD4CF6A44141F6483CC2F2000121
:10432000C2F2000C497D0029294618BF41F0040162
:10433000002840F2000018BF29469CF80430C4F25F
:104340000200012B19D1DCF80C30DD0735D19A07BA
:104350003AD45A073FD41A0744D4DA0649D49A0605
:104360004ED45A0653D41A0604D50268012363F3C7
:104370008F32026000228CF8042001F57F01350C99
:104380004FF47F4401224FF48033816140F61801DD
:1043900064F31F25C4F202010A600B608561350ACF
:1043A00064F31F260A600B6064F31F2585610A60B1
:1043B0000B6086610A600B6070BD0568012262F3C4
:1043C000010505609A07C4D50268012565F38302DB
:1043D00002605A07BFD50268012565F30512026025
:1043E0001A07BAD50268012565F387120260DA065A
:1043F000B5D50268012565F3092202609A06B0D599
:104400000268012565F38B2202605A06ABD502686B
:10441000012565F30D3202601A06A6D4AAE7000052
:1044200010B541F64834012040F2010CC2F20004FC
:10443000C0F2FF0C2070617819B9A178D9B30CF1E2
:10444000010C22790021C4F20201012A17D1E2688D
:10445000D30733D1900738D450073DD4100742D446
:10446000D00647D490064CD4500651D4100604D53B
:104470000868012262F38F3008600020207140F646
:104480001800C1F818C00221C4F202000160012125
:1044900001604FF440310160607830B1FFF706FFF2
:1044A000002060700020207010BDA07818B1FFF7C8
:1044B0000FFC0020A0700020207010BD0B680120B0
:1044C00060F301030B609007C6D50868012363F30E
:1044D000830008605007C1D50868012363F3051005
:1044E00008601007BCD50868012363F387100860D3
:1044F000D006B7D50868012363F309200860900649
:10450000B2D50868012363F38B2008605006ADD54F
:104510000868012363F30D3008601006A8D4ACE7E7
:1045200080B541F6483E4FF0010C0022C2F2000E69
:10453000C4F202028EF800C09EF80430012B19D19B
:10454000DEF80C30D90728D198072DD4580732D47B
:10455000180737D4D8063CD4980641D4580646D418
:10456000180604D51068012161F38F301060002017
:104570008EF8040005200221C0F2FF00906140F691
:104580001800C4F2020001604FF44031C0F800C0CE
:10459000016000208EF8000080BD1168012060F3EA
:1045A000010111609807D1D51068012161F38300E2
:1045B00010605807CCD51068012161F30510106018
:1045C0001807C7D51068012161F387101060D8065D
:1045D000C2D51068012161F3092010609806BDD58D
:1045E0001068012161F38B2010605806B8D510685F
:1045F000012161F30D3010601806B3D4B7E7000055
:1046000080B541F6483E4FF0010C0022C2F2000E88
:10461000C4F202028EF800C09EF80430012B19D1BA
:10462000DEF80C30D90728D198072DD4580732D49A
:10463000180737D4D8063CD4980641D4580646D437
:10464000180604D51068012161F38F301060002036
:104650008EF8040006200221C0F2FF00906140F6AF
:104660001800C4F2020001604FF44031C0F800C0ED
:10467000016000208EF8000080BD1168012060F309
:10468000010111609807D1D51068012161F3830001
:1046900010605807CCD51068012161F30510106037
:1046A0001807C7D51068012161F387101060D8067C
:1046B000C2D51068012161F3092010609806BDD5AC
:1046C0001068012161F38B2010605806B8D510687E
:1046D000012161F30D3010601806B3D4B7E7000074
:1046E0002DE9F04F89B041F6483A002740F618040A
:1046F00001254FF0000B4FF47F0C02234FF44032A2
:104700004FF480380DF104090026C2F2000AC4F209
:104710000207C4F202048AF8005000BF9AF80400AD
:10472000012833D1DAF80C00C1071EBF396865F3E0
:1047300001013960810742BF396865F3830139603F
:10474000410742BF396865F305113960010742BF6F
:10475000396865F387113960C10642BF396865F36E
:1047600009213960810642BF396865F38B213960C0
:10477000410642BF396865F30D313960000642BF1A
:10478000386865F38F3038608AF804B046F47F00EB
:10479000C7F818C0236025602260B8612560DAF888
:1047A0000C00C1071EBF396821F003013960810781
:1047B00042BF396821F00C013960410742BF3968B6
:1047C00021F030013960010742BF396821F0C00192
:1047D0003960C10642BF396821F4407139608106F1
:1047E00042BF396821F440613960410642BF3968EF
:1047F00021F440513960000642BF386820F440403F
:1048000038608AF8045000BF3869C0B2864215D0BB
:10481000484610A13246CDE907BBCDE905BBCDE93D
:1048200003BBCDE901BB1EF097FC484601210FF008
:1048300005FD4FF4403202234FF47F0C0136C4F8DB
:104840000080082E7FF46AAF00208AF8000009B0CB
:10485000BDE8F08F46504741204255532050696EC5
:104860002564206572726F7200000000F0B581B09F
:10487000054643F480401F4614460E46B0F5804F6F
:1048800007D04BF2921040F24F11C0F6020018F020
:10489000EFFEB7F5804F28D140F20410CAF20000B5
:1048A000854207D04BF2921040F25511C0F602003B
:1048B00018F0DEFE306810281ED2706801380F280C
:1048C00026D2B0680138FF282ED2F068102836D2E0
:1048D000B0694FEA307004283ED2062C46D8012039
:1048E000A04010F0550F49D140E06FF0704045F8FE
:1048F0002400002001B0F0BD4BF292104FF4AB71D8
:10490000C0F6020018F0B4FE706801380F28D8D342
:104910004BF2921040F25711C0F6020018F0A8FEB8
:10492000B0680138FF28D0D34BF292104FF4AC712D
:10493000C0F6020018F09CFEF0681028C8D34BF2B5
:10494000921040F25911C0F6020018F091FEB069C1
:104950004FEA30700428C0D34BF292104FF4AD717F
:10496000C0F6020018F084FE062CB8D94BF2921063
:1049700040F25B11C0F6020018F07AFE002155F8F3
:104980002400CCF6F071084096E88E000843B16927
:1049900040EA021040EA032040EA0740084345F895
:1049A0002400002001B0F0BD2DE9F0470D468046FF
:1049B000B0F1204F06D04BF292108621C0F60200D3
:1049C00018F056FE286806280ED8012101FA00F0DA
:1049D00010F0550F08D0686840F0020002280FD18F
:1049E000A868082817D9A8E04BF292108721C0F6D2
:1049F000020018F03DFE686840F002000228EFD087
:104A00004BF292108821C0F6020018F031FEA8681F
:104A1000082800F29280012101FA00F040F2111101
:104A2000084200F08A80E868002818BF102840F08B
:104A30009180286940F48070B0F5807F40F09B80C1
:104A4000686940F40070B0F5007F40F0A280A8696A
:104A500040F48060B0F5806F40F0A980E86940F4D0
:104A60000060B0F5006F40F0B080286A40F48050DC
:104A7000B0F5805F40F0B780686A40F40050B0F550
:104A8000005F40F0BE80A86A40F48040B0F5804FDF
:104A900040F0C580E86A40F40040B0F5004F40F0B7
:104AA000CC80286B40F40020B0F5002F40F0D3807C
:104AB000D5F83CE04FEA3E41052908D34BF292106D
:104AC0009621C0F6020018F0D3FDD5F83CE0D5E9F8
:104AD00000C205F1080A80219AE8D804D5F81C9094
:104AE000CFF6F07158F82C00082B00EA010040EADC
:104AF000020040EA030040EA040040EA060005F133
:104B0000200640EA070056CE2D6B40EA0A0040EA34
:104B1000090040EA010040EA020040EA040040EADD
:104B2000060040EA0E0040EA050008BF40F04000E1
:104B300048F82C000020BDE8F0874BF29210892144
:104B4000C0F6020018F094FDE868002818BF10288D
:104B50003FF46FAF20283FF46CAF4BF292108A21E4
:104B6000C0F6020018F084FD286940F48070B0F5AA
:104B7000807F3FF465AF4BF292108B21C0F60200AC
:104B800018F076FD686940F40070B0F5007F3FF4DE
:104B90005EAF4BF292108C21C0F6020018F068FD57
:104BA000A86940F48060B0F5806F3FF457AF4BF2D6
:104BB00092108E21C0F6020018F05AFDE86940F408
:104BC0000060B0F5006F3FF450AF4BF292109021AF
:104BD000C0F6020018F04CFD286A40F48050B0F591
:104BE000805F3FF449AF4BF292109121C0F6020072
:104BF00018F03EFD686A40F40050B0F5005F3FF4E5
:104C000042AF4BF292109221C0F6020018F030FD34
:104C1000A86A40F48040B0F5804F3FF43BAF4BF2C0
:104C200092109321C0F6020018F022FDE86A40F4C9
:104C30000040B0F5004F3FF434AF4BF29210942196
:104C4000C0F6020018F014FD286B40F40020B0F507
:104C5000002F3FF42DAF4BF292109521C0F60200C9
:104C600018F006FDD5F83CE04FEA3E410529FFF477
:104C70002EAF23E7F0B581B015460C460646B0F1DD
:104C8000204F07D04BF292104FF48C71C0F6020007
:104C900018F0EEFC206810281FD2606801380F2839
:104CA00027D2A0680138FF282FD2E068102837D219
:104CB000206902380F283FD260690238102847D295
:104CC000A0694FEA307004284FD2062D57D8012032
:104CD000A84010F0550F5AD151E04BF2921040F21B
:104CE0001911C0F6020018F0C3FC606801380F28E3
:104CF000D7D34BF292104FF48D71C0F6020018F02A
:104D0000B7FCA0680138FF28CFD34BF2921040F2D5
:104D10001B11C0F6020018F0ABFCE0681028C7D3E6
:104D20004BF292104FF48E71C0F6020018F0A0FC06
:104D3000206902380F28BFD34BF2921040F21D11A8
:104D4000C0F6020018F094FC606902381028B7D34E
:104D50004BF292104FF48F71C0F6020018F088FCED
:104D6000A0694FEA30700428AFD34BF2921040F2A2
:104D70001F11C0F6020018F07BFC062DA7D94BF2DC
:104D800092104FF49071C0F6020018F071FC06EB1F
:104D900085000027D0F804C094E84C00D4E9035102
:104DA000CFF6F077D4E905E407EB01510CF040476A
:104DB0003A4342EA031242EA062242EA054211431A
:104DC0000EF1FE02214341EA02614160002001B080
:104DD000F0BD00002DE9F04F81B02DED048B8AB0BD
:104DE00040F2C8040293CDE90301902091460026C9
:104DF0004FF480550DF127010DF126020123C2F277
:104E000001048DF827008DF826600095204604F0F7
:104E1000D1FF0DF127010DF12602204601238DF867
:104E200027608DF82660009504F0C4FF9DF8268069
:104E30000DF127010DF12602204601238DF8276090
:104E40008DF82660009504F0B5FF9DF826A064203B
:104E500018F0B4FCD0200DF127010DF1260201233A
:104E60008DF8266000958DF82700204604F0A2FFFB
:104E70000DF127010DF12602204601238DF8276050
:104E80008DF82660009504F095FF9DF826700DF1D1
:104E900027010DF12602204601238DF827608DF8A9
:104EA0002660009504F086FF4AEA0820B9F1000F59
:104EB000CDF8149080B24FEAD00006909DF82600FD
:104EC00040EA072080B24FEAD0000790484600F041
:104ED000818040F2C8054FF000094FF0000B4FF4FD
:104EE0008054C2F2010500BF90200DF127060DF19C
:104EF000260A01238DF826B000948DF82700284655
:104F00003146524604F056FF2846314652460123A8
:104F10008DF827B08DF826B0009404F04BFF9DF873
:104F200026003146524601238DF827B08DF826B071
:104F300000940890284604F03DFF9DF826706420F8
:104F400018F03CFCD0203146524601238DF826B0A3
:104F500000948DF82700284604F02CFF284631469F
:104F6000524601238DF827B08DF826B0009404F046
:104F700021FF9DF8268028463146524601238DF8B0
:104F800027B08DF826B0009404F014FF089847EA83
:104F90000020BBEBD00F1EBF9DF8261041EA082170
:104FA0005FEAD10106D1059809F1010981459BD33A
:104FB00010E000BF079AC00811FA82F14908079172
:104FC000069910FA81F040080690059809F1010948
:104FD000814589D3DDF8189041F62C54C2F20004C3
:104FE0001FFA89F094ED010AD4ED020A01EE100ACD
:104FF000B8EE418AB0EE481A18F03CFBDDF81C8090
:10500000F8B11FFA88F094ED030AD4ED040A01EE1A
:10501000100AB8EE419AB0EE491A18F02BFB80B195
:1050200004F1200C04F1100204F11C0304F10C073C
:1050300004F1180604F1140504F1080104340120F8
:1050400090E094ED020AD4ED090AB0EE481A18F087
:1050500011FBF8B11FFA88F094ED0A0AD4ED0B0A9F
:1050600001EE100AB8EE419AB0EE491A18F002FBB0
:1050700080B104F12C0C04F1200204F1280304F1A6
:105080001C0704F1300604F1180504F1240108346A
:10509000022067E094ED0D0AD4ED0E0AB0EE481A36
:1050A00018F0E8FAF8B11FFA88F094ED040AD4ED8C
:1050B0000F0A01EE100AB8EE419AB0EE491A18F044
:1050C000D9FA80B104F1400C04F13C0204F1200350
:1050D00004F1100704F1380604F1340504F1180155
:1050E000143403203EE094ED0E0AD4ED110AB0EE24
:1050F000481A18F0BFFAF8B11FFA88F094ED0B0ABD
:10510000D4ED120A01EE100AB8EE419AB0EE491A37
:1051100018F0B0FAB0B104F1480C04F1400204F107
:105120002C0304F1200704F1440604F1380504F1CE
:1051300030011834042015E01FFA88F000EE100A40
:10514000B8EE409A04F1200C04F13C0204F128036B
:1051500004F10C0704F1440604F1340504F12401C0
:105160000434002095ED000A96ED001A94ED002A13
:1051700091ED003A92ED004A97ED005A9CED006ADD
:1051800093ED007AF7EE000A31EE401A30EE480A4D
:1051900033EE423A38EE422A35EE445A34EE494A6A
:1051A00037EE467A39EE466A80EE010A82EE032A2D
:1051B000BFEE001A84EE053A86EE074A9FED6C5A60
:1051C00030EE200A32EE011A33EE202A30EEC43AD5
:1051D000B5EEC00A30EEC06A31EE207AF1EE10FA78
:1051E000B5EEC02AB8BFB0EE450AF1EE10FAB5EE42
:1051F000C03AB8BFB0EE452AF1EE10FAB5EEC06A7B
:10520000B8BFB0EE453AF1EE10FAB5EEC04AB8BFFD
:10521000B0EE456AF1EE10FAB5EEC07AB8BFB0EE66
:10522000454AF1EE10FAB4EEE00AB8BFB0EE457AA6
:10523000F1EE10FAB4EEE02AC8BFB0EE600AF1EE6B
:1052400010FAB4EEE03AC8BFB0EE602A22EE001ABF
:10525000F1EE10FAB4EEE06AC8BFB0EE603AF1EEDB
:1052600010FAB4EEE04AC8BFB0EE606A23EE060A58
:10527000F1EE10FAB4EEE07AC8BFB0EE604AF1EE9B
:1052800010FAC8BFB0EE607A24EE072A03280ED0C9
:1052900002281FD0012839D19FED363A9FED364ABA
:1052A00031EE001A30EE022A21EE030A4EE09FEDA5
:1052B000313A31EE001A9FED304A30EE020A21EE0B
:1052C000032A20EE041A32EE030A0499DDE90202F1
:1052D00090B142E09FED283A30EE022A9FED254A38
:1052E00031EE000A22EE031A20EE040A31EE031A10
:1052F0000499DDE9020280BBBDEEC11ABDEEC00A11
:1053000011EE100A10EE108A108028E030EE022A0A
:10531000042813D19FED173A9FED174A31EE000A8A
:1053200020EE030A22EE041A30EE030A31EE041ACC
:105330000499DDE902020028DED00EE09FED0F3A6D
:1053400031EE000A9FED0E4A20EE030A22EE041A07
:105350000499DDE902020028CED0A2F80090A1F85D
:1053600000800AB0BDEC048B01B0BDE8F08F00BF37
:10537000000000000000F0420000204300007043E5
:105380000000A043F0B581B0074600200D46009014
:105390000868132826D26868013810282ED2A86819
:1053A000082807D34BF25A1040F25C61C0F60200A5
:1053B00018F05EF997F83C00012802BF022001B006
:1053C000F0BD012087F83C0028681FFA80FC0A28FD
:1053D0004FEA4C0111FA80F31CD33A681E3B02F1EC
:1053E0000C011AE04BF25A1040F25A61C0F602006A
:1053F00018F03EF9686801381028D0D34BF25A10E3
:1054000040F25B61C0F6020018F032F9A868082883
:10541000C8D2CFE73A6802F1100107240E689C4019
:10542000A6430E60AE6806FA03F30E6833430B60C2
:105430006968062905D801EB810102F134030539B9
:105440000BE001EB81050C2987BF02F12C03A5F1CC
:10545000410102F13003A5F123011F261D688E4092
:105460000CFA01F125EA06061E601E683143196038
:1054700042F20431C4F20101A1F541739A423CD1D8
:10548000122808D1086840F480000860002087F8DE
:105490003C0001B0F0BD20F00102102A2DD10A68B5
:1054A000102842F400020A6027D141F6B4104DF6EC
:1054B0008361C2F20000C4F21B310068A0FB01014D
:1054C000880C00EB800040000090009828B914E0A0
:1054D000009801380090009878B100980138009049
:1054E000009850B1009801380090009828B10098B9
:1054F0000138009000980028EAD1002087F83C008D
:1055000001B0F0BD0068C06C70470000002804BF07
:1055100001207047B0B542F2000104460068C4F2B1
:105520000101884213D042F20011C4F20101884205
:105530000DD042F20021C4F20101884207D04BF2A3
:105540005A1040F24311C0F6020018F091F860685A
:105550004FEA304004281CD2A0684FEA306004288B
:1055600024D2206902282CD2207E022834D2A06ABC
:10557000B0F1106F3CDAB0F1806F46DBB0F1C06F74
:1055800056DB66D0B0F1E06F63D0B0F1006F60D051
:1055900042E14BF25A104FF4A271C0F6020018F02B
:1055A00067F8A0684FEA30600428DAD34BF25A104B
:1055B00040F24511C0F6020018F05AF8206902289E
:1055C000D2D34BF25A104FF4A371C0F6020018F078
:1055D0004FF8207E0228CAD34BF25A1040F24711EE
:1055E000C0F6020018F044F8A06AB0F1106FC2DBF8
:1055F000B0F1506F11DAB0F1306F20DAB0F1106F06
:1056000027D0B0F1206F24D006E1B0F1007F1BDA83
:10561000F8B1B0F1807F1CD0FEE000F171410229A9
:1056200017D3B0F1506F14D0B0F1606F11D0F3E028
:10563000B0F1806F0DD0B0F1A06F0AD0ECE008D0CF
:10564000B0F1406F05D0E7E003D0B0F1407F40F00B
:10565000E380E06840F40060B0F5006F40F0EB805C
:10566000E0690138102880F0F38094F830000228B7
:1056700080F0FB806069032880F0038194F82000AB
:10568000022807D34BF25A1040F24D11C0F6020027
:1056900017F0EEFF0125A06AC0F60075A8420CD0F5
:1056A000E06A4FEA3070042807D34BF25A1040F2F8
:1056B0005111C0F6020017F0DBFF206CC8B3206C5C
:1056C000C00640D4206C41F20211884302302064AD
:1056D00042F20430C4F20100016821F4403101605B
:1056E00061680268114301602068416821F480719B
:1056F00041602169426842EA01214160416821F02C
:1057000040714160A168426811434160816821F4A1
:1057100000618160E168826811438160A16A8268EA
:1057200022F07062A9428260826811D122F0405159
:1057300017E0204600F0B4F8002084F83C006064D4
:10574000206CC006BED50120002184F83C10B0BDFD
:1057500011438160816821F040518160E16A826873
:1057600011438160816821F002018160217E82689D
:1057700042EA4101816094F82010F1B1616A4A1E49
:10578000082A09D34BF25A1040F27771C0F6020092
:1057900017F06EFF2068616A426842F4006242605E
:1057A000426822F4604242604EF20002CFF6FF727D
:1057B00002EB41314268114302E0416821F400618B
:1057C00041600022C16ACFF6F07221F47001C1621B
:1057D000E16902EB0151C26A1143C162816821F49F
:1057E0000071816094F83010826842EA4121816042
:1057F000816821F4806181606169826842EA812167
:105800000122816000206064216C62F30101216447
:10581000002184F83C10B0BD4BF25A104FF4A47133
:10582000C0F6020017F024FFE06840F40060B0F515
:10583000006F3FF415AF4BF25A1040F24911C0F619
:10584000020017F015FFE06901381028FFF40DAFD2
:105850004BF25A104FF4A571C0F6020017F008FF82
:1058600094F830000228FFF405AF4BF25A1040F2D2
:105870004B11C0F6020017F0FBFE60690328FFF42D
:10588000FDAE4BF25A104FF4A671C0F6020017F0AD
:10589000EFFE94F820000228BFF4F4AEFAE6000010
:1058A00080B586B000210591CDE90311CDE9011144
:1058B000026842F20000C4F20100824201D006B048
:1058C00080BD43F63002009100F56840C4F2020248
:1058D000536943F480735361536903F480730093F5
:1058E000009B0091136843F004031360126802F0F8
:1058F00004020092009A0391032102910C2101916C
:1059000001A900F0F5FD06B080BD000070B50446A9
:1059100000680D468168490544BF80685FEAC05051
:1059200030D400F09BFF06462068016889071AD42E
:105930008DB3691C0ED10168890714D401688907E9
:105940005CBF01685FEA81710DD401688907F2D5F7
:1059500009E000BF00F082FF801BA8421BD820682E
:1059600001688907F6D56FF012010160216C41F4DE
:1059700000712164816811F0405F01D1217E99B1ED
:10598000002070BD002084F83C00206C40F0200016
:105990002064012070BD002084F83C00206C40F0A1
:1059A00004002064032070BDC16A11F4700F02D09E
:1059B00080684005E4D4206C20F480702064206C62
:1059C000C004DDD4206C40F001002064002070BDD4
:1059D00010B582B0044600200190207E022807D333
:1059E0004BF25A1040F2D521C0F6020017F040FEEB
:1059F000E06A4FEA3070042807D34BF25A1040F2A5
:105A0000D621C0F6020017F033FE94F83C000128BE
:105A100002BF022002B010BD012084F83C002068C3
:105A20008168C9072BD181684DF68362C4F21B32AD
:105A300041F00101816041F6B411C2F20001096830
:105A4000A1FB0212910C01EB41010191019931B9C5
:105A500015E000BF019901390191019979B10199CE
:105A600001390191019951B10199013901910199CE
:105A700029B101990139019101990029EAD181687F
:105A8000C90749D0216C40F20172914301F5807140
:105A900021644168490504D5216C012262F30D316E
:105AA0002164216C0022C90444BF626C22F006020A
:105AB000002184F83C106FF022016264016042F220
:105AC0000431C4F201010B68A1F54172DB060AD072
:105AD000904221D14FF60452CFF6FF72895811F04F
