:020000040000FA
:02000000011CE1
:020001000120DC
:020002000124D7
:020003000128D2
:02000400012CCD
:020005000130C8
:020006000134C3
:020007000138BE
:02000800013CB9
:020009000140B4
:02000A000144AF
:02000B000148AA
:02000C00014CA5
:02000D000150A0
:02000E0001549B
:02000F00015896
:02001000015C91
:0200110001608C
:02001200016487
:02001300016882
:02001400016C7D
:02001500017078
:02001600017473
:0200170001786E
:02001800017C69
:02001900018064
:02001A0001845F
:02001B0001885A
:02001C00018C55
:02001D00019050
:02001E0001944B
:02001F00019846
:02002000019C41
:0200210001A03C
:0200220001A437
:0200230001A832
:0200240001AC2D
:0200250001B028
:0200260001B423
:0200270001B81E
:0200280001BC19
:0200290001C014
:02002A0001C40F
:02002B0001C80A
:02002C0001CC05
:02002D0001D000
:02002E0001D4FB
:02002F0001D8F6
:0200300001DCF1
:0200310001E0EC
:0200320001E4E7
:0200330001E8E2
:0200340001ECDD
:0200350001F0D8
:0200360001F4D3
:0200370001F8CE
:0200380001FCC9
:020039000000C5
:02003A000004C0
:02003B000008BB
:02003C00000CB6
:02003D000010B1
:02003E000014AC
:02003F000018A7
:02004000001CA2
:00000001ff
