:020000040000FA
:03000000000000FD
:03000100000000FC
:03000200000000FB
:0300030003FFFFF9
:03000400000000F9
:03000500000002F6
:03000600000001F6
:0300070003FFFBF9
:0300080003FFFDF6
:03000900000008EC
:03000A00000007EC
:03000B0003FFF2FE
:03000C0003FFF3FC
:03000D00000016DA
:03000E00000017D8
:03000F0003FFDE0E
:0300100003FFD813
:03001100000032BA
:03001200000042A9
:0300130003FFBA2E
:0300140003FF9750
:0300150000005F89
:030016000000A344
:0300170003FF8361
:0300180003FF0DD6
:0300190000009D47
:03001A0000016280
:03001B0003FF439D
:03001C0003FE09D7
:03001D000000DA06
:03001E000002BB22
:03001F0003FF13C9
:0300200003FC4A94
:030021000000EEEE
:030022000004F4E3
:0300230003FF2EAA
:0300240003F9825B
:0300250000008B4D
:030026000008606F
:0300270003FFF8DC
:0300280003F55A83
:0300290003FF32A0
:03002A00000D5E68
:03002B00000215BB
:03002C0003EF6778
:03002D0003FC0CC5
:03002E0000146B50
:03002F0000069C2C
:0300300003E70AD9
:0300310003F5A232
:03003200001E634A
:03003300000FAC0F
:0300340003DAFCF0
:0300350003E8A439
:03003600002D5446
:030037000022EBB9
:0300380003C7AC4F
:0300390003CA2CCB
:03003A000047B6C6
:03003B0000591752
:03003C0003A137E6
:03003D00035191DB
:03003E0000761336
:03003F0001FFFFBF
:0300400001FFFFBE
:0300410000761333
:03004200035191D6
:0300430003A137DF
:0300440000591749
:030045000047B6BB
:0300460003CA2CBE
:0300470003C7AC40
:030048000022EBA8
:03004900002D5433
:03004A0003E8A424
:03004B0003DAFCD9
:03004C00000FACF6
:03004D00001E632F
:03004E0003F5A215
:03004F0003E70ABA
:0300500000069C0B
:0300510000146B2D
:0300520003FC0CA0
:0300530003EF6751
:0300540000021592
:03005500000D5E3D
:0300560003FF3273
:0300570003F55A54
:0300580003FFF8AB
:030059000008603C
:03005A0000008B18
:03005B0003F98224
:03005C0003FF2E71
:03005D000004F4A8
:03005E000000EEB1
:03005F0003FC4A55
:0300600003FF1388
:030061000002BBDF
:030062000000DAC1
:0300630003FE0990
:0300640003FF4354
:0300650000016235
:0300660000009DFA
:0300670003FF0D87
:0300680003FF8310
:030069000000A3F1
:03006A0000005F34
:03006B0003FF97F9
:03006C0003FFBAD5
:03006D000000424E
:03006E000000325D
:03006F0003FFD8B4
:0300700003FFDEAD
:0300710000001775
:0300720000001675
:0300730003FFF395
:0300740003FFF295
:0300750000000781
:030076000000087F
:0300770003FFFD87
:0300780003FFFB88
:0300790000000183
:03007A0000000281
:03007B0000000082
:03007C0003FFFF80
:03007D0000000080
:03007E000000007F
:03007F000000007E
:00000001ff
